:100000000C94E9010C942E2D0C9408020C94080217
:100010000C9408020C9408020C9408020C94080238
:100020000C9408020C945C2D0C9408020C940802A9
:100030000C9408020C940F2B0C9408020C940F2BB8
:100040000C9408020C94422B0C9408020C940802A5
:100050000C9408020C9408020C9408020C940802F8
:100060000C9408020C9408020C9408020C940802E8
:100070000C9408020C9408020C9408020C940802D8
:100080000C944C2B0C9408020C9408020C9408025B
:100090000C9400190C9408020C9408020C940802A9
:1000A0000C9408020C9408020C9408020C940802A8
:1000B0000C9408020C9408020C9408020C94080298
:1000C0000C9408020C9408020C940802601C661C34
:1000D000691C6C1C6F1C721C781C751C7B1C7E1CA4
:1000E000811C871C8A1C8D1C901C841C5D1C631C3D
:1000F0004661696C656420746F206C6F6164206D6B
:100100007920414443206472697665720D0A004289
:100110004D4143204552524F523A206372656174FB
:10012000696E6720656E61626C65207369676E61D8
:100130006C206661696C65640D0A00424D41432084
:100140004552524F523A206372656174696E67205E
:100150007478207369676E616C206661696C656490
:100160000D0A00424D4143204552524F523A2063FE
:1001700072656174696E67207278207369676E6159
:100180006C206661696C65640D0A00434332343249
:1001900030204552524F523A202052656C656173AF
:1001A00065206F662073656D6170686F726520668B
:1001B00061696C65640D0A00434332343230204576
:1001C00052524F523A202041636365737320746F1B
:1001D0002073656D6170686F7265206661696C651A
:1001E000640D0A00554E4B4F574E004661696C65D1
:1001F0006420746F206372656174652053656D615E
:1002000070686F7265004661696C656420746F2068
:10021000637265617465205369676E616C004B653C
:10022000726E656C2066756E6374696F6E206E6F9A
:100230007420696D706C656D656E746564004465ED
:100240007669636520447269766572204572726FC3
:1002500072005761746368646F67205265737461DC
:1002600072740054696D6572204F766572666C6FAA
:100270007700556E68616E646C656420496E7465C4
:10028000727275707420566563746F72004C6F776C
:1002900020566F6C746167650045787472612054F4
:1002A00061736B20737461727465642C20697320B0
:1002B0006E726B5F6366672E68206F6B3F004964E8
:1002C0006C65206F72204B65726E656C2053746193
:1002D000636B204F766572666C6F7700556E65783C
:1002E0007065637465642052657374617274004450
:1002F00075706C696361746564205461736B204927
:1003000044005363686564756C6572204D6973734E
:1003100065642057616B657570005461736B205282
:100320006573657276652056696F6C6174656400EB
:1003300052657365727665204572726F7220696EC0
:10034000205363686564756C657200496E76616CF4
:10035000696420537461636B20506F696E746572B9
:10036000005461736B20537461636B204F76657228
:10037000666C6F7700537461636B20776173206ED6
:100380006F7420646566696E6564206173206C61BA
:1003900072676520656E6F7567682100293A2000D5
:1003A0002A4E524B204552524F5228000D0A5354A8
:1003B00041434B2044554D500D0A00454647656664
:1003C0006700202B2D2E3031323334353637383913
:1003D000680011241FBECFEFD1E2DEBFCDBF12E017
:1003E000A0E0B2E0E8EBF6E600E00BBF02C0079049
:1003F0000D92A43CB107D9F716E0A4ECB2E001C01D
:100400001D92A13BB107E1F70E94D5030C945B3329
:100410000C947A2B61E086E998E00E942C298F3FAA
:1004200021F480EF90E00E94ED1808958FE692E0AD
:10043000909372048093710483EC93E090936E0424
:1004400080936D0484EC92E09093700480936F0429
:1004500082E08093740481E0809373048093750438
:1004600080937604109277041092780410927904A5
:1004700010927A0480E896E9A8E9B0E080937B04C2
:1004800090937C04A0937D04B0937E0410927F042B
:1004900010928004109281041092820410928304BE
:1004A000109284041092850410928604109287049E
:1004B000109288041092890410928A0410928B047E
:1004C00010928C0410928D0410928E048CE694E0AD
:1004D0000E94DA2380E092E00E94B63008952F92C5
:1004E0003F924F925F926F927F928F929F92AF92C4
:1004F000BF92CF92DF92EF92FF920F931F93CF9311
:10050000DF93CDB7DEB72A970FB6F894DEBF0FBEE4
:10051000CDBF89E10E9482060E94DC2199279F932A
:100520008F938DE092E09F938F930E949F300F9066
:100530000F900F900F9002C00E949C230E94940481
:100540008823D1F30E9405068D830E945C1E809152
:100550004A028A8760E00E94DD166090480261E0EE
:10056000862D0E94DD1665E081E00E944929782EE3
:100570000E945607CC24DD242E010894411C511CF6
:10058000E3E08E2E912C8C0E9D1E7EE1A72E72E054
:10059000B72E42E061E0872D0E94BC29598648862B
:1005A00042E0B201872D0E94DE2945E061E0872DFF
:1005B0000E94BC299F828E8242E0B401872D0E9456
:1005C000DE2989819A812B813C81CC2019F48C0110
:1005D000790108C0080F191F16950795E20EF31E42
:1005E000F694E794FF92EF921F930F93BF92AF920E
:1005F0000E949F300894C11CD11C8DB79EB70696EF
:100600000FB6F8949EBF0FBE8DBF94E1C916D104FA
:1006100009F0BFCF4EEC842E4FEF942E800E911E2A
:1006200032E3A32EB12CA00EB11E2EECC22E2FEF62
:10063000D22ECE0CDF1C87010E5C1F4F81E090E0B4
:100640000E943F1898EFE92E93E0F92E81E0282EC2
:10065000312C412C512C0D8004C0220C331C441C25
:10066000551C0A94D2F742E061E0872D0E94BC2914
:1006700042E068857985872D0E94DE2945E061E0AA
:10068000872D0E94BC2942E06E817F81872D0E94C8
:10069000DE298A850E949A15882349F4862D0E94B6
:1006A000891483E090E00E943F1882E44BC0862DBD
:1006B0000E940E1583E090E00E9422188B819C819D
:1006C0008017910760F4C816D906B0F429813A81E1
:1006D0002A153B05F0F482169306D8F432C00817A9
:1006E000190750F429813A812A153B0528F482160E
:1006F000930610F485E526C08C159D0550F42981DC
:100700003A812A153B0528F48216930610F484E4F6
:1007100019C029813A81A216B30640F480179107C7
:1007200028F4C816D90610F482E50CC0281539053E
:1007300040F48017910728F4C816D90610F48CE409
:1007400001C08DE299279F938F9381E490E09F935E
:100750008F9386E392E09F938F93FF92EF920E9494
:10076000E930FF92EF928EE392E09F938F930E9485
:100770009F30F70101900020E9F73197E85FF340DF
:100780006E2FC7010E942904C201B1010E94B62048
:1007900081E090E00E9405188DB79EB70C960FB6C9
:1007A000F8949EBF0FBE8DBF5ECFCFEFD1E2DEBF0C
:1007B000CDBF0E94821487E090E00E94B7180E948B
:1007C000751B80E090E00E94221881E090E00E947A
:1007D000221882E090E00E94221883E090E00E94BC
:1007E000221820E030E040E050E060E070E080E07F
:1007F00090E00E943E250E94AD040E940A020E94E1
:1008000016020E94151B80E090E00C945B33089563
:100810008FEF9FEF089580E090E008959093EB03B1
:100820008093EA0381E090E008958093C4030895E3
:10083000009719F48FEF9FEF08959093150580931B
:1008400014056093130581E08093AD0581E090E08D
:1008500008959C0180919F05813019F48FEF9FEFDF
:10086000089581E080939F053093EE032093ED037C
:100870006093EC0381E090E0089520E030E0809107
:10088000AD05882311F421E030E0C901089581E02D
:100890008093AD0581E090E0089510929E05089543
:1008A000CF93DF93CDB7DEB728970FB6F894DEBFAE
:1008B0000FBECDBF29833A834B835C836D837E83D8
:1008C0008F8398872D813E814F81588589819A81B8
:1008D000AB81BC810097A105B10559F420306DE2D0
:1008E000360761E3460761E0560718F48FEF9FEF84
:1008F00012C08093A1059093A205A093A305B09385
:10090000A4052093A5053093A6054093A705509311
:10091000A80581E090E028960FB6F894DEBF0FBEE0
:10092000CDBFDF91CF91089580919D05992787FDD7
:1009300090950895823018F481E090E00895883011
:1009400008F086E091E020E030E0990F2F5F3F4F04
:100950002817D8F3892F992708950F931F9306EC32
:1009600013E065E677E0C8010E94D72D40E850E02B
:100970006FE874E0C8010E94382E84E18093CE03B2
:1009800081E08093CD038093CF038093D0031092B6
:10099000D1031092D2031092D3031092D40380E0BB
:1009A0009DE2A1E3B1E08093D5039093D603A09399
:1009B000D703B093D8038AE090E0A0E0B0E0809342
:1009C000D9039093DA03A093DB03B093DC03109276
:1009D000DD031092DE031092DF031092E003109209
:1009E000E1031092E2031092E3031092E4031092E9
:1009F000E5031092E6031092E7031092E803C801A2
:100A00000E94DA231F910F91089581E080939E0543
:100A10008091E9030E94641F08950F931F930E9421
:100A20001C0E8AEF90E00E94452A09B10E94040E34
:100A3000112784E0169507958A95E1F7C801817022
:100A400090701F910F910895EF92FF920F931F9353
:100A50008091C403882309F463C02091A1053091DB
:100A6000A2054091A3055091A4056091A505709140
:100A7000A6058091A7059091A8050E944F258C019D
:100A80000E9409306AE070E00E94C032BC016F5FD2
:100A90007F4FC8010E94AC32CB010E940723FF2484
:100AA000F3940E940D05E82E81E0E816C9F10E943A
:100AB00009308C018F2D0E949A04682F7727C80176
:100AC0000E94C03299270E9469232091A10530918C
:100AD000A2054091A3055091A4056091A5057091D0
:100AE000A6058091A7059091A8050E944F258C012D
:100AF0000E9409306AE070E00E94C032BC016F5F62
:100B00007F4FC8010E94AC32CB010E940723EE2028
:100B100039F4F39486E08F1520F696E0F92EC1CFD4
:100B20000E944D0B0E94040B2091A1053091A2055B
:100B30004091A3055091A4056091A5057091A6056B
:100B40008091A7059091A8050E94ED210E94F00ACE
:100B50000E94180B0E94040E8AEE93E00E94830EFE
:100B60008093A9050E94040E10929F05809199051B
:100B70000E94641F81E090E01F910F91FF90EF9021
:100B800008950F931F936091AB058FE095E00E944D
:100B9000F2120E941C0E10E015C01F5F2091A105EB
:100BA0003091A2054091A3055091A4056091A5053F
:100BB0007091A6058091A7059091A8050E94ED214E
:100BC000143061F00E94BF0A882339F30AC01F5F06
:100BD00084E690E00E94452A133321F40E94040E1B
:100BE0000AC010E00E94AD0B082F882381F30E94F9
:100BF000040E013019F080E090E004C01092AD05C1
:100C000081E090E01F910F910895809199050E94D5
:100C10005C1E80919905992787FD90950895809194
:100C2000F5030E945C1E8091F503992787FD90953E
:100C300008951F93CF93DF93EC01162F80919F05AA
:100C4000813019F1809199050E945C1E81E08093AA
:100C50009F05D093EE03C093ED031093EC0361E086
:100C600070E080E090E00090990504C0660F771F67
:100C7000881F991F0A94D2F70E94B6208091A90577
:100C8000882319F081E090E002C08FEF9FEFDF91A1
:100C9000CF911F9108958091F5030E945C1E61E041
:100CA00070E080E090E00090F50304C0660F771FCD
:100CB000881F991F0A94D2F70E94B6200090F5036E
:100CC00004C096958795779567950A94D2F760FD4D
:100CD00003C08FEF9FEF089581E090E00895682FA3
:100CE0008B3118F08FEF9FEF08958093AB0520E0D4
:100CF00030E04FEF5FEF8FE095E00E942F1381E02F
:100D000090E008951F93182F8FEF80939A0581E04C
:100D10008093C4031092A1051092A2051092A3051E
:100D20001092A40580E091EEA5EFB5E08093A505B3
:100D30009093A605A093A705B093A8050E94D31D84
:100D40008093F5038F3F19F483E691E008C00E9479
:100D5000D31D809399058F3F79F48BE391E00E9436
:100D6000ED18E0917D06F0917E0660858EE00E9490
:100D7000CC1C8FEF9FEF5BC00E94D31D8093E903D3
:100D80008F3F19F48FE091E0EACF10929F05109207
:100D9000AD0510921505109214051092130520E070
:100DA00030E04FEF5FEF612F8FE095E00E942F134F
:100DB0001093AB05409883E18EBD0DB407FEFDCFC7
:100DC00085EE8EBD0DB407FEFDCF80E88EBD0DB45F
:100DD00007FEFDCF409A409885E18EBD0DB407FE19
:100DE000FDCF80E88EBD0DB407FEFDCF8FEF8EBD29
:100DF0000DB407FEFDCF409A409887E18EBD0DB43B
:100E000007FEFDCF8AE08EBD0DB407FEFDCF86E55F
:100E10008EBD0DB407FEFDCF409A83ED0E94840B7A
:100E200081E080939D0580939E0581E090E01F9175
:100E300008950E94840B81E090E00895803218F0BC
:100E40008FEF9FEF08950E945C0E81E090E008957F
:100E50000E942B0A81E090E008950E94050A81E03B
:100E600090E00895603119F08FEF9FEF08950E9490
:100E7000051281E090E008950E94BA09992787FD44
:100E8000909508950E94CA1181E090E008950E9413
:100E9000440A81E090E008950E945F0A81E090E0BA
:100EA00008950E947A0A81E090E008950E94980ACD
:100EB00081E090E00895643019F08FEF9FEF08957E
:100EC0000E94BE0981E090E0089502C00E949C2328
:100ED00080919D058823D1F38091E9030E945C1ED7
:100EE00080919E05882349F18091AD05813061F4A0
:100EF0000E940D05882341F40E94C105813021F430
:100F00008091F5030E94641F80919F05813011F448
:100F10000E9424052091A1053091A2054091A305CE
:100F20005091A4056091A5057091A6058091A70533
:100F30009091A8050E94ED21D3CF61E070E080E0A0
:100F400090E00090E90304C0660F771F881F991F87
:100F50000A94D2F70E94B6200090E90304C0969547
:100F60008795779567950A94D2F760FDB9CFE5CF5D
:100F7000FC01DB018091AD05882329F010821C92D1
:100F800080E090E00895809112058083809117059C
:100F90008C9380911405909115050895EAE7F0E08F
:100FA00083E08083ACE7B0E080E48C93808180684C
:100FB00080831092AF058C91807E8C939C918C9154
:100FC000807E892B8C93089588EC90E00E94452ABE
:100FD000089580917A00806480937A0080917A00ED
:100FE00084FFFCCF0E94E407209178003327809192
:100FF00079009927982F8827822B932B0895FF92A9
:101000000F931F93CF93DF93CDB7DEB722970FB621
:10101000F894DEBF0FBECDBF0E943F0A8C0100973F
:1010200011F00E946220159AFF248F2D806299276B
:101030009A83898340988BE18EBD0DB407FEFDCF66
:1010400089819A81892F99278EBD0DB407FEFDCF26
:1010500089819A818EBD0DB407FEFDCF409A82E052
:1010600090E00E94452A40988BE58EBD0DB407FEA6
:10107000FDCF1EBC0DB407FEFDCF8EB59927982F6E
:1010800088279A8389831EBC0DB407FEFDCF898112
:101090009A812EB53327282B392B3A832983409AFE
:1010A00089819A8186FD05C0F3942FE1F21609F03B
:1010B000BCCF0115110519F0C8010E94101FFF20B7
:1010C000C9F40E94E9079A83898389819A818F3ABA
:1010D000910530F089819A818E5A90409A83898354
:1010E00089819A818A54914098F48AE491E09A83A4
:1010F00089830EC02DE7F29E9001112488E293E2CD
:10110000821B930B6BE170E00E94C0327A8369838B
:1011100089819A8122960FB6F894DEBF0FBECDBFAB
:10112000DF91CF911F910F91FF900895CF92DF92A1
:10113000EF92FF920F931F93CF93DF93982FEA01C3
:10114000122F823009F481C0833030F4882371F08B
:10115000813009F0D2C010C0843009F481C08430DD
:1011600008F477C0853009F0C8C02DC080E880BB86
:101170008F9A0E94CE076AC08091AE05813009F433
:10118000C3C09093AE05772760FF13C08F9810926D
:10119000AF0580917C00807E80937C0090917C00E4
:1011A00080917C00807E892B80937C0088EE93E088
:1011B0009FC061FDA9C062FDA7C067707070672BFA
:1011C00009F4A2C097C0822F8150823008F099C0E4
:1011D0009091AF05892F8150863018F40E94E9075D
:1011E00022C0992319F40E94FF071DC0973051F5C2
:1011F000F1E0CF2EF4E0DF2EEE24FF2400E00E9489
:10120000E9078C159D0508F46C01E816F90608F449
:101210007C018DE790E00E94452A0F5F003479F74A
:10122000C7018C199D09123031F48883892F9927C1
:10123000898381E008C0113029F4969587959695A9
:101240008795888380E08F5F09C08F9A1092AE05E2
:1012500051C0613009F058C08091AF05992756C040
:10126000613009F051C02730D9F42093AF05809147
:101270007C008F7780937C0080917C0080648093D9
:101280007C0080917C00807E80937C0090917C002B
:1012900080917C009360807E982B90937C0026C088
:1012A000283020F081E00E94071C2EC02093AF055B
:1012B000213049F480917C008F7780937C0080916D
:1012C0007C00806403C080917C00806C80937C00F3
:1012D00080917C00807E80937C0090917C00809146
:1012E0007C00807E892B812B80937C0088EC90E0B1
:1012F0000E94452A81E090E009C060E08CE00E94F5
:10130000CC1C80E090E002C08FEF90E0DF91CF91A5
:101310001F910F91FF90EF90DF90CF900895992744
:101320009C01265A3E4B0B97880F991F880F991FD7
:10133000280F391FF894409888E18EBD0DB407FE40
:10134000FDCF832F99278EBD0DB407FEFDCF2EBD97
:101350000DB407FEFDCF409A78940895F894409814
:101360001EBC0DB407FEFDCF8EB5409A789486FF63
:10137000F5CF08958091C50599270895CF93DF9300
:10138000DC01409889EC8EBD0DB407FEFDCF80E8EE
:101390008EBD0DB407FEFDCF92E09150FD01E90F27
:1013A000F11D80818EBD0DB407FEFDCF9923A9F7F5
:1013B000409A40988BEC8EBD0DB407FEFDCF80E8BF
:1013C0008EBD0DB407FEFDCF92E09D012E5F3F4F15
:1013D000E9019150F901E90FF11D80818EBD0DB435
:1013E00007FEFDCF9923A1F7409A8C918093C60503
:1013F000FD0181818093C70588818093C805838121
:101400008093C905DF91CF910895409889E18EBD01
:101410000DB407FEFDCF83E08EBD0DB407FEFDCFFA
:1014200086E08EBD0DB407FEFDCF409A40988AE15C
:101430008EBD0DB407FEFDCF8EE08EBD0DB407FE50
:10144000FDCF8EE08EBD0DB407FEFDCF409A81E04A
:101450008093B6050895409889E18EBD0DB407FECE
:10146000FDCF81E08EBD0DB407FEFDCF84EC8EBDB7
:101470000DB407FEFDCF409A1092B60508958091F5
:10148000B4059091B50508952091B7053091B80540
:1014900038603093B8052093B705409881E18EBD40
:1014A0000DB407FEFDCF832F99278EBD0DB407FE27
:1014B000FDCF2EBD0DB407FEFDCF409A08952091BB
:1014C000B7053091B805377F3093B8052093B7053D
:1014D000409881E18EBD0DB407FEFDCF832F992783
:1014E0008EBD0DB407FEFDCF2EBD0DB407FEFDCFA2
:1014F000409A089581E08093C4052091B70530910A
:10150000B80520613093B8052093B705409881E174
:101510008EBD0DB407FEFDCF832F99278EBD0DB470
:1015200007FEFDCF2EBD0DB407FEFDCF409A0895F6
:101530001092C4052091B7053091B8052F7E3093E5
:10154000B8052093B705409881E18EBD0DB407FE24
:10155000FDCF832F99278EBD0DB407FEFDCF2EBD85
:101560000DB407FEFDCF409A089589B1992766E032
:10157000969587956A95E1F78170907008958CB182
:10158000992787FD90958827990F881F9927089597
:1015900089B19927E6E096958795EA95E1F78170FC
:1015A000907008958091CA05882319F480E090E036
:1015B00008958091CA051092CA05992787FD9095D4
:1015C0000895409888E08EBD0DB407FEFDCF409A87
:1015D000409888E08EBD0DB407FEFDCF409A089577
:1015E0008091B4059091B5050E946220409886E0F4
:1015F0008EBD0DB407FEFDCF409A8091B405909149
:10160000B5050E94101F08958091B4059091B5050D
:101610000E946220409884E08EBD0DB407FEFDCF8D
:10162000409A8091B4059091B5050E94101F0895CD
:101630008091B4059091B5050E946220409886E0A3
:101640008EBD0DB407FEFDCF409A409882E18EBD5D
:101650000DB407FEFDCF85E08EBD0DB407FEFDCFB6
:101660001EBC0DB407FEFDCF409A40988EE28EBDA1
:101670000DB407FEFDCF1EBC0DB407FEFDCF1EBC92
:101680000DB407FEFDCF409A0E94E10A8091B40597
:101690009091B5050E94101F08958091B405909116
:1016A000B5050E946220409886E08EBD0DB407FE0D
:1016B000FDCF409A409882E18EBD0DB407FEFDCF6C
:1016C00085E08EBD0DB407FEFDCF88E08EBD0DB464
:1016D00007FEFDCF409A40988EE28EBD0DB407FE06
:1016E000FDCF88E18EBD0DB407FEFDCF1EBC0DB44D
:1016F00007FEFDCF409A0E94E10A8091B4059091C7
:10170000B5050E94101F08950F931F93082F809115
:10171000B4059091B5050E946220112707FD109530
:10172000302F22272068409883E18EBD0DB407FE3C
:10173000FDCF832F99278EBD0DB407FEFDCF2EBDA3
:101740000DB407FEFDCF409A8091B4059091B50588
:101750000E94101F1F910F910895CF93DF93CDB773
:10176000DEB724970FB6F894DEBF0FBECDBF8091D1
:10177000B4059091B5050E946220679B34C2109217
:10178000C505679B25C0319923C040988FE78EBD62
:101790000DB407FEFDCF1EBC0DB407FEFDCF8EB508
:1017A000409A409888E08EBD0DB407FEFDCF409A68
:1017B000409888E08EBD0DB407FEFDCF409A809121
:1017C000B4059091B5050E94101F8FEF9FEF13C2D3
:1017D00040988FE78EBD0DB407FEFDCF1EBC0DB443
:1017E00007FEFDCF4EB5409A4F7719F540988FE729
:1017F0008EBD0DB407FEFDCF1EBC0DB407FEFDCFA0
:101800008EB5409A409888E08EBD0DB407FEFDCF9E
:10181000409A409888E08EBD0DB407FEFDCF409AF7
:101820008091B4059091B5050E94101F8EEF9FEF37
:10183000E2C145308CF0E091B905F091BA05242F52
:10184000332727FD30952B5030408481992787FD21
:10185000909582179307F4F540988FE78EBD0DB4ED
:1018600007FEFDCF60E070E0242F332727FD309581
:1018700006C01EBC0DB407FEFDCF6F5F7F4F862FE5
:1018800099278217930714F43199F3CF409A40981F
:101890008FE78EBD0DB407FEFDCF1EBC0DB407FE55
:1018A000FDCF8EB5409A409888E08EBD0DB407FEFE
:1018B000FDCF409A409888E08EBD0DB407FEFDCF65
:1018C000409A8091B4059091B5050E94101F8DEF4C
:1018D0009FEF91C1E091B905F091BA054C50438357
:1018E00040988FE78EBD0DB407FEFDCFFE01319607
:1018F0009E012D5F3F4F1EBC0DB407FEFDCF8EB580
:101900008193E217F307B9F7409AE091B905F09196
:10191000BA0589819A81B5E096958795BA95E1F7E0
:101920008170878340988FE78EBD0DB407FEFDCF91
:101930001EBC0DB407FEFDCFE091B905F091BA05CC
:101940008EB58083409A40988FE78EBD0DB407FE18
:10195000FDCF80E007C01EBC0DB407FEFDCF8F5F3A
:10196000843011F03199F7CF409A40988FE78EBDBF
:101970000DB407FEFDCF20E030E01EBC0DB407FE25
:10198000FDCFE091B905F091BA05E20FF31F8EB5D6
:1019900081832F5F3F4F2230310579F7409A89814B
:1019A0009A8183FF56C040988FE78EBD0DB407FE25
:1019B000FDCFE0EBF5E01EBC0DB407FEFDCF8EB50C
:1019C000819385E0E43BF807B1F7409A409889E9B4
:1019D0008EBD0DB407FEFDCF80E88EBD0DB407FEB1
:1019E000FDCF92E09150E92FFF27E055FA4F80811B
:1019F0008EBD0DB407FEFDCF9923A1F7409A409804
:101A00008BE98EBD0DB407FEFDCF80E88EBD0DB411
:101A100007FEFDCF92E09150E92FFF27EE54FA4FD9
:101A200080818EBD0DB407FEFDCF9923A1F7409AAA
:101A300040988CE08EBD0DB407FEFDCF409A81E04A
:101A40008093C505E091B905F091BA058381845072
:101A5000838340988FE78EBD0DB407FEFDCF40E035
:101A600050E011C01EBC0DB407FEFDCFE091B905DA
:101A7000F091BA050580F681E02DE60FF11D8EB5D7
:101A800080834F5F5F4F642FE091B905F091BA05F5
:101A9000242F33278381992787FD909528173907AD
:101AA0000CF3409A40988FE78EBD0DB407FC0AC036
:101AB000FCCF0DB407FEFDCF5EB5409A40988FE78E
:101AC0008EBD02C01EBCF5CF0DB407FEFDCFFE01DA
:101AD00033969E012B5F3F4F1EBC0DB407FEFDCF1A
:101AE0008EB58193E217F307B9F7409AE091B905F3
:101AF000F091BA058B81808740E020E030E00AC099
:101B0000E091B905F091BA0585819681A80FB91FBA
:101B10008C91480F822FE091B905F091BA052F5FA3
:101B20003F4FA82FBB278381992787FD9095A81742
:101B3000B90734F3451719F140988FE78EBD0DB4FE
:101B400007FEFDCF1EBC0DB407FEFDCF8EB5409A3B
:101B5000409888E08EBD0DB407FEFDCF409A4098B6
:101B600088E08EBD0DB407FEFDCF409A8091B4058C
:101B70009091B5050E94101F8CEF9FEF3CC08C81A7
:101B800087FF0EC08091CA058F5F8093CA05809140
:101B9000B4059091B5050E94101F81E090E02BC024
:101BA00040988FE78EBD0DB407FEFDCF1EBC0DB46F
:101BB00007FEFDCF8EB5409A409888E08EBD0DB4EB
:101BC00007FEFDCF409A409888E08EBD0DB407FE19
:101BD000FDCF409A8091B4059091B5050E94101FE9
:101BE0008BEF9FEF08C08091B4059091B5050E94DE
:101BF000101F80E090E024960FB6F894DEBF0FBE71
:101C0000CDBFDF91CF9108958091B4059091B50536
:101C10000E9462201092C105409886E08EBD0DB4EE
:101C200007FEFDCF409A1092CA058091B4059091AD
:101C3000B5050E94101F08958091B4059091B505D7
:101C40000E94622081E08093C105409883E08EBDB0
:101C50000DB407FEFDCF409A409888E08EBD0DB4CC
:101C600007FEFDCF409A1092CA058091B40590916D
:101C7000B5050E94101F08958091B4059091B50597
:101C80000E94622081E08093C105409883E08EBD70
:101C90000DB407FEFDCF409A409888E08EBD0DB48C
:101CA00007FEFDCF409A1092CA058091B40590912D
:101CB000B5050E94101F08951F93182F8091B40539
:101CC0009091B5050E946220212F33272F7130702B
:101CD000206E306A409885E18EBD0DB407FEFDCFC1
:101CE000832F99278EBD0DB407FEFDCF2EBD0DB4F9
:101CF00007FEFDCF409A8091B4059091B5050E94F2
:101D0000101F1F910895EF92FF920F931F93CF938F
:101D1000DF93CDB7DEB722970FB6F894DEBF0FBEC4
:101D2000CDBF8C018091B4059091B5050E946220D1
:101D30005091B605552339F040988DE08EBD0DB415
:101D400007FEFDCF409AF8014281642F772767FD97
:101D50007095A0E020E030E008C0F8018381948114
:101D6000E80EF91EF7018081A80F822F2F5F3F4FE9
:101D7000E82EFF24E616F70684F3942F945F5111A2
:101D80009C5F6799FECF4E99FCCFF894409889E00C
:101D90008EBD0DB407FEFDCF409A409889E08EBD00
:101DA0000DB407FEFDCF409A40988EE38EBD0DB472
:101DB00007FC05C0FCCF0DB407FC30C1FCCF9EBDB5
:101DC000FACF81E698E89A838983552329F089819F
:101DD0009A8188609A83898340988EE38EBD0DB482
:101DE00007FEFDCFFE0131969E012D5F3F4F8081A2
:101DF0008EBD0DB407FEFDCF3196E217F307B9F79C
:101E0000409A40988EE38EBD0DB407FC05C0FCCF10
:101E10000DB407FC0EC1FCCF8091BB058EBDF8CF81
:101E20000DB407FEFDCF20E030E0F901E354FA4F96
:101E300080818EBD0DB407FEFDCF2F5F3F4F223056
:101E4000310599F7409A40988EE38EBD0DB407FE98
:101E5000FDCF20E030E0F801E20FF31F80818EBD5E
:101E60000DB407FEFDCF2F5F3F4F2230310599F7AC
:101E7000409A40988EE38EBD0DB407FEFDCF20E062
:101E800030E0F901E154FA4F80818EBD0DB407FEB8
:101E9000FDCF2F5F3F4F2230310599F7409A5523F0
:101EA00099F040988EE38EBD0DB407FEFDCFE6ECB1
:101EB000F5E080818EBD0DB407FEFDCF319685E043
:101EC000EA3CF807B1F7409A40988EE38EBD0DB416
:101ED00007FEFDCF20E030E00DC0F8018381948142
:101EE000480F591FFA0180818EBD0DB407FEFDCF4A
:101EF0002F5F3F4F422F55274617570774F3409ADD
:101F000040988EE38EBD0DB407FC05C0FCCF0DB428
:101F100007FC94C0FCCFAEBDFACF8091C1058823E9
:101F200039F4409883E08EBD0DB407FEFDCF409A92
:101F300040981EBC0DB407FEFDCF8EB5409A81FFC0
:101F4000F7CF00E0409885E08EBD0DB407FEFDCFD1
:101F5000409A40981EBC0DB407FEFDCF1EB5409AB6
:101F60000F5F053651F478948091B4059091B505D2
:101F70000E94101F80E090E068C084E690E00E941C
:101F80004E1913FD08C0DECF409884E08EBD0DB41D
:101F900007FEFDCF409A78944E9BFECF4E99FECF20
:101FA0008091C405882391F084EA92E00E944E1942
:101FB000319B0EC040988FE78EBD0DB407FEFDCF5C
:101FC0001EBC0DB407FEFDCF8EB5409A11E00FC0C8
:101FD000409888E08EBD0DB407FEFDCF409A409832
:101FE00088E08EBD0DB407FEFDCF409A10E0F89456
:101FF000409886E08EBD0DB407FEFDCF409A7894E0
:102000008091BB058F5F8093BB058091B405909153
:10201000B5050E94101F812F992717C0409A81E4AF
:1020200098E89A8389838091C405882309F0C9CEF2
:10203000CCCE409A40988EE38EBDF2CE409AF80105
:102040008581882309F069CF9FCF22960FB6F89437
:10205000DEBF0FBECDBFDF91CF911F910F91FF90DB
:10206000EF900895BF92CF92DF92EF92FF920F937D
:102070001F93CF93DF93CDB7DEB722970FB6F894B7
:10208000DEBF0FBECDBF8C016B017A018091B4051C
:102090009091B5050E9462200E940B2B409888E029
:1020A0008EBD0DB407FEFDCF409A409888E08EBDEE
:1020B0000DB407FEFDCF409A6799FECF4E99FCCF35
:1020C000F894409889E08EBD0DB407FEFDCF409A8C
:1020D000409889E08EBD0DB407FEFDCF409AF8010F
:1020E0006281462F552747FD5095BB2420E030E004
:1020F00007C0F80183819481A80FB91F8C91B80E95
:10210000822F2F5F3F4FA82FBB27A417B5078CF353
:10211000962F945F40988EE38EBD0DB407FC05C0EA
:10212000FCCF0DB407FC16C1FCCF9EBDFACF81E6F3
:1021300098E89A83898340988EE38EBD0DB407FE9C
:10214000FDCFFE0131969E012D5F3F4F80818EBDF8
:102150000DB407FEFDCF3196E217F307B9F7409AA9
:1021600040988EE38EBD0DB407FC05C0FCCF0DB4C6
:1021700007FCF9C0FCCF8091BB058EBDF8CF0DB434
:1021800007FEFDCF20E030E0F901E354FA4F8081F3
:102190008EBD0DB407FEFDCF2F5F3F4F22303105BE
:1021A00099F7409A40988EE38EBD0DB407FEFDCF9F
:1021B00020E030E0F801E20FF31F80818EBD0DB406
:1021C00007FEFDCF2F5F3F4F2230310599F7409A30
:1021D00040988EE38EBD0DB407FEFDCF20E030E0C9
:1021E000F901E154FA4F80818EBD0DB407FEFDCF99
:1021F0002F5F3F4F2230310599F7409AB701C60152
:102200000E94902BF80185818823C1F18091C1053E
:10221000882339F4409883E08EBD0DB407FEFDCFCE
:10222000409A40981EBC0DB407FEFDCF8EB5409A73
:1022300081FFF7CFEE24409885E08EBD0DB407FEF8
:10224000FDCF409A40981EBC0DB407FEFDCFFEB4F2
:10225000409AE394F5E6EF1651F478948091B40532
:102260009091B5050E94101F80E090E083C084E645
:1022700090E00E944E19F3FC08C0DDCF409884E046
:102280008EBD0DB407FEFDCF409A40988EE38EBD03
:102290000DB407FEFDCFF8018281482F552747FD79
:1022A000509520E030E00CC0F80183819481A80FA4
:1022B000B91F8C918EBD0DB407FEFDCF2F5F3F4F30
:1022C000A22FBB27A417B5077CF3409A40988EE352
:1022D0008EBD0DB407FC05C0FCCF0DB407FC48C093
:1022E000FCCFBEBCFACF4E9BFECFF8944E99FECFEA
:1022F000409888E08EBD0DB407FEFDCF409A40980F
:1023000088E08EBD0DB407FEFDCF409A409889E06D
:102310008EBD0DB407FEFDCF409A409889E08EBD7A
:102320000DB407FEFDCF409A409886E08EBD0DB4F7
:1023300007FEFDCF409A78948091BB058F5F809314
:10234000BB058091B4059091B5050E94101F81E0F6
:1023500090E010C0409AF8018681882309F0E7CE0A
:1023600081E498E8E6CE409A40988EE38EBD07CF90
:10237000409AB9CF22960FB6F894DEBF0FBECDBFFC
:10238000DF91CF911F910F91FF90EF90DF90CF9051
:10239000BF900895CF93DF93CDB7DEB722970FB6E6
:1023A000F894DEBF0FBECDBF9A8389839093C0059A
:1023B0008093BF0584EF91E00E94452A40988AEE01
:1023C0008EBD0DB407FEFDCF80E88EBD0DB407FEB7
:1023D000FDCFFE0131969E012D5F3F4F80818EBD66
:1023E0000DB407FEFDCF3196E217F307B9F7409A17
:1023F00084EF91E00E94452A22960FB6F894DEBF42
:102400000FBECDBFDF91CF9108956F927F928F92D3
:102410009F92AF92BF92CF92DF92EF92FF920F9373
:102420001F93CF93DF93CDB7DEB722970FB6F89403
:10243000DEBF0FBECDBF8C0184E690E00E94452A2E
:102440007801C12CB1E0DB2E3E010894611C711CA7
:10245000A3E08A2E912C8C0E9D1EF7018081218194
:1024600033279927982F8827282B392B3A832983BC
:1024700084E690E00E94452A40988C2D80688EBDAD
:102480000DB407FEFDCFC60195958795807C8EBD66
:102490000DB407FEFDCF83015301F50180818EBD90
:1024A0000DB407FEFDCF0894A11CB11CA814B904FB
:1024B000A1F7409A0894E11CF11C82E090E0C80E5C
:1024C000D91E90E1C91691E0D90639F684E690E06C
:1024D0000E94452A20E131E040E451E01A8219824D
:1024E0004098842F80688EBD0DB407FEFDCFCA01D1
:1024F00095958795807C8EBD0DB407FEFDCFF801C4
:1025000080818EBD0DB407FEFDCF3196EA15FB0527
:10251000B9F7409A4098822F80688EBD0DB407FEAF
:10252000FDCFC90195958795807C8EBD0DB407FEC2
:10253000FDCFF80180818EBD0DB407FEFDCF319631
:10254000EA15FB05B9F7409A2E5F3F4F4E5F5F4F8C
:10255000E1E02E313E0711F681E090E09A83898315
:1025600040988EEC8EBD0DB407FEFDCF80E88EBD89
:102570000DB407FEFDCFF80180818EBD0DB407FEBE
:10258000FDCF3196EA15FB05B9F7409A40988EE9E0
:102590008EBD0DB407FEFDCF80E88EBD0DB407FEE5
:1025A000FDCFF80180818EBD0DB407FEFDCF0F5F1A
:1025B0001F4F0A151B05A9F7409A22960FB6F894EB
:1025C000DEBF0FBECDBFDF91CF911F910F91FF9066
:1025D000EF90DF90CF90BF90AF909F908F907F90C3
:1025E0006F9008951F93CF93DF93EC01162F809186
:1025F000B4059091B5050E946220409888E08EBD98
:102600000DB407FEFDCF409A409888E08EBD0DB412
:1026100007FEFDCF409A812F0E948F09D093BA0503
:10262000C093B9058091B4059091B5050E94101F23
:10263000DF91CF911F9108951F93182F8091B405BA
:102640009091B5050E946220812F0E948F09809190
:10265000B4059091B5050E94101F1F910895DF9257
:10266000EF92FF920F931F93CF93DF93CDB7DEB717
:1026700022970FB6F894DEBF0FBECDBF8C01D62EC9
:102680005A834983790164E181E00E94951E909309
:10269000B5058093B405892B31F40E94DC21682FA5
:1026A0008FE00E94CC1C8091B4059091B5050E94EA
:1026B00062208F3F21F488EB91E00E94ED18159A7B
:1026C00088EE93E00E944E19169881E090E00E94F7
:1026D0004E19169A84E690E00E944E19F89440989C
:1026E00081E08EBD0DB407FEFDCF409A82EE92E0F0
:1026F0009093B8058093B705409881E18EBD0DB4E5
:1027000007FEFDCF82E08EBD0DB407FEFDCF82EE49
:102710008EBD0DB407FEFDCF409A409882E18EBD7C
:102720000DB407FEFDCF85E08EBD0DB407FEFDCFD5
:102730001EBC0DB407FEFDCF409A40988CE18EBDC3
:102740000DB407FEFDCF1EBC0DB407FEFDCF8FE715
:102750008EBD0DB407FEFDCF409A409889E18EBD35
:102760000DB407FEFDCF81E08EBD0DB407FEFDCF99
:1027700084EC8EBD0DB407FEFDCF409A409887E1F2
:102780008EBD0DB407FEFDCF8AE18EBD0DB407FEF0
:10279000FDCF86E58EBD0DB407FEFDCF409A84EFD8
:1027A00091E00E94452A409888EE8EBD0DB407FE48
:1027B000FDCF80E88EBD0DB407FEFDCFFE01319642
:1027C0009E012D5F3F4F80818EBD0DB407FEFDCF72
:1027D0003196E217F307B9F7409A84EF91E00E942F
:1027E000452A78948D2D0E948F0978941093BA050C
:1027F0000093B90589819A819093BE058093BD05A8
:10280000F092C005E092BF051092BB051092C10581
:102810000E94AE098091B4059091B5050E94101FE9
:102820008F3F39F48BE891E00E94ED1882E00E941E
:10283000071C1092C4051092B6051092C505229689
:102840000FB6F894DEBF0FBECDBFDF91CF911F91C1
:102850000F91FF90EF90DF9008952091DD0580911A
:10286000CB05281781F0E22FFF27E453FA4FE081D0
:10287000822F8F5F8093DD05803111F41092DD058A
:102880008E2F992708958091C80087FFFCCF8091F3
:10289000C8008F778093C8008091CE009927089553
:1028A000882351F48091C000992787FD909588274F
:1028B000990F881F99270895813019F080E090E0E2
:1028C000089520E030E09091DD058091CB059817C8
:1028D00011F021E030E0C901089585B7806185BF1E
:1028E00086E084B987E085B981E087B988B98CE34F
:1028F0008DB98BE08AB98EE38EB988E781B980E41F
:1029000082B908950E946D1480E58CBD81E08DBD73
:1029100008958F3F09F47FC0482F55279A012770EB
:10292000307022303105A9F12330310544F42115EE
:10293000310589F02130310509F06DC01CC024300B
:10294000310509F446C0243031059CF125303105AC
:1029500009F061C04EC022B1A3E056954795AA95F3
:10296000E1F781E090E002C0880F991F4A95E2F7F5
:10297000282B22B94DC085B1F3E056954795FA95BD
:10298000E1F702C0220F331F4A95E2F7822B85B987
:102990003FC028B1E3E056954795EA95E1F781E01D
:1029A00090E002C0880F991F4A95E2F7282B28B9BA
:1029B0002FC02BB173E0569547957A95E1F781E0EA
:1029C00090E002C0880F991F4A95E2F7282B2BB997
:1029D0001FC02EB163E0569547956A95E1F781E0F7
:1029E00090E002C0880F991F4A95E2F7282B2EB974
:1029F0000FC021B333E0569547953A95E1F781E052
:102A000090E002C0880F991F4A95E2F7282B21BB5E
:102A100081E090E008958FEF9FEF08958F3F09F4D4
:102A200086C0482F55279A01277030702230310513
:102A3000C1F12330310544F42115310589F02130ED
:102A4000310509F074C01DC02430310509F44BC0B4
:102A500024303105BCF12530310509F068C054C07F
:102A600022B173E0569547957A95E1F781E090E0C1
:102A700002C0880F991F4A95E2F78095822382B998
:102A800053C095B163E0569547956A95E1F702C04A
:102A9000220F331F4A95E2F7822F8095892385B94B
:102AA00043C028B133E0569547953A95E1F781E068
:102AB00090E002C0880F991F4A95E2F78095822323
:102AC00088B932C02BB193E0569547959A95E1F7B6
:102AD00081E090E002C0880F991F4A95E2F7809547
:102AE00082238BB921C02EB183E0569547958A95F4
:102AF000E1F781E090E002C0880F991F4A95E2F764
:102B0000809582238EB910C021B3B3E056954795C6
:102B1000BA95E1F781E090E002C0880F991F4A95CD
:102B2000E2F78095822381BB81E090E008958FEFEA
:102B30009FEF08958F3FA9F1282F3327C901877090
:102B4000907082309105A9F0833091052CF40097A4
:102B500061F0019731F50BC08430910571F084303C
:102B600091054CF00597E9F40AC080B109C083B122
:102B700007C086B105C089B103C08CB101C08FB157
:102B80009927E3E036952795EA95E1F702C09595F8
:102B900087952A95E2F7992787FD90958170907027
:102BA00008958FEF9FEF08958F3F09F403C1282FF9
:102BB0003327A901477050704230510509F45CC0B9
:102BC0004330510544F44115510591F04130510510
:102BD00009F0F0C034C04430510509F49BC04430C2
:102BE00051050CF470C04530510509F0E3C0B9C07F
:102BF00080B1A90173E0569547957A95E1F7992739
:102C0000042E02C0959587950A94E2F780FD0BC0CB
:102C100022B181E090E002C0880F991F4A95E2F747
:102C2000282B22B9C4C022B181E090E002C0880FF5
:102C3000991F4A95E2F78095822382B9B8C083B183
:102C400063E0369527956A95E1F79927022E02C031
:102C5000959587950A94E2F702C0440F551F2A956F
:102C6000E2F780FD03C085B1842B04C095B1842FA9
:102C70008095892385B99BC086B1A90193E05695BB
:102C800047959A95E1F79927042E02C09595879567
:102C90000A94E2F780FD0BC028B181E090E002C009
:102CA000880F991F4A95E2F7282B28B980C028B1D0
:102CB00081E090E002C0880F991F4A95E2F7809565
:102CC000822388B974C089B1A901B3E056954795AC
:102CD000BA95E1F79927042E02C0959587950A9435
:102CE000E2F780FD0BC02BB181E090E002C0880FBD
:102CF000991F4A95E2F7282B2BB959C02BB181E0D7
:102D000090E002C0880F991F4A95E2F780958223D0
:102D10008BB94DC08CB1A901A3E056954795AA95F2
:102D2000E1F79927042E02C0959587950A94E2F75A
:102D300080FD0BC02EB181E090E002C0880F991F8A
:102D40004A95E2F7282B2EB932C02EB181E090E0EF
:102D500002C0880F991F4A95E2F7809582238EB9A9
:102D600026C08FB1A901F3E056954795FA95E1F792
:102D70009927042E02C0959587950A94E2F780FD65
:102D80000BC021B381E090E002C0880F991F4A95E3
:102D9000E2F7282B21BB0BC021B381E090E002C0F9
:102DA000880F991F4A95E2F78095822381BB81E0C5
:102DB00090E008958FEF9FEF08958F3F09F412C1BF
:102DC000482F5527662309F090C0CA01877090707C
:102DD0008230910509F43EC0833091053CF40097A0
:102DE00089F08130910509F0FDC021C08430910542
:102DF00009F454C0843091050CF43EC0059709F0E5
:102E0000F1C05EC031B1B3E056954795BA95E1F790
:102E100081E090E002C0880F991F4A95E2F7282FC1
:102E20002095232321B922B1822B82B9D8C024B1A5
:102E3000A3E056954795AA95E1F702C0880F991F20
:102E40004A95E2F7982F8095822384B985B1982B13
:102E500095B9C5C037B1F3E056954795FA95E1F7B6
:102E600081E090E002C0880F991F4A95E2F7282F71
:102E70002095232327B935C03AB1E3E0569547950D
:102E8000EA95E1F781E090E002C0880F991F4A952A
:102E9000E2F7282F209523232AB923C03DB173E000
:102EA000569547957A95E1F781E090E002C0880F4A
:102EB000991F4A95E2F7282F209523232DB911C099
:102EC00030B363E0569547956A95E1F781E090E06D
:102ED00002C0880F991F4A95E2F7282F20952323D7
:102EE00020BB25B1822B85B97AC09A01277030703A
:102EF00022303105A9F12330310544F42115310583
:102F000089F02130310509F06DC01CC02430310535
:102F100009F446C0243031059CF12530310509F013
:102F200061C04EC021B133E0569547953A95E1F71F
:102F300081E090E002C0880F991F4A95E2F7282BA4
:102F400021B94DC084B193E0569547959A95E1F724
:102F500002C0220F331F4A95E2F7822B84B93FC08B
:102F600027B1B3E056954795BA95E1F781E090E037
:102F700002C0880F991F4A95E2F7282B27B92FC066
:102F80002AB1A3E056954795AA95E1F781E090E034
:102F900002C0880F991F4A95E2F7282B2AB91FC053
:102FA0002DB1F3E056954795FA95E1F781E090E071
:102FB00002C0880F991F4A95E2F7282B2DB90FC040
:102FC00020B3E3E056954795EA95E1F781E090E07C
:102FD00002C0880F991F4A95E2F7282B20BB81E099
:102FE00090E008958FEF9FEF0895882319F08FEFF9
:102FF0009FEF089580B1992787FD909580959095D2
:103000008827990F881F99270895009711F484E164
:1030100009C08130910511F48CE104C08230910522
:1030200031F484E20E94D41581E090E00895039782
:1030300019F08FEF9FEF08958CE20E94D41581E084
:1030400090E00895009711F484E109C08130910562
:1030500011F48CE104C08230910531F484E20E94C5
:10306000891481E090E00895039719F08FEF9FEFA6
:1030700008958CE20E94891481E090E00895009701
:1030800011F484E109C08130910511F48CE104C090
:103090008230910531F484E20E940E1581E090E0C7
:1030A0000895039719F08FEF9FEF08958CE20E9427
:1030B0000E1581E090E00895882319F085B78F7E82
:1030C00002C085B7806185BF81E090E00895982FA8
:1030D0008091C00085FFFCCF8091C0008F7D8093E0
:1030E000C0009093C6000895982F8091C80085FF76
:1030F000FCCF9093CE000895292F33272093C5004D
:103100008093C40086E08093C200E1ECF0E080810F
:103110008B7F8083A0ECB0E08C9182608C93808167
:10312000886180830895292F33272093CD008093D1
:10313000CC0086E08093CA00E9ECF0E080818B7FD0
:103140008083A8ECB0E08C9182608C938081886150
:10315000808308958091C00087FFFCCF8091C000DC
:103160008F778093C0008091C600992708950E94B0
:1031700093186DE274E184E798E10E942430909303
:10318000AA068093A9066DE274E184E798E10E94A3
:1031900024309093A8068093A7060E94D31D8093A5
:1031A000DC058F3F19F48EE00E94D31C1092DD05E0
:1031B0001092CB058091C90080688093C900089562
:1031C0008091DC058F3F19F48EE00E94D31C809122
:1031D000DC05992787FD90950895CF93DF93EC0147
:1031E00007C06091A9067091AA0699270E947230C3
:1031F000FE01219684918823A1F7DF91CF91089554
:103200001F920F920FB60F9211242F933F934F935B
:103210005F936F937F938F939F93AF93BF93EF933E
:10322000FF938091C9008F778093C9008091C80077
:1032300087FFFCCF8091C8008F778093C800909162
:10324000CE008091CB05E82FFF27E453FA4F9083FF
:103250008F5F8093CB05803111F41092CB05809164
:10326000DC050E94641F8091C8008F778093C8009E
:103270008091C90080688093C900FF91EF91BF9150
:10328000AF919F918F917F916F915F914F913F91FE
:103290002F910F900FBE0F901F9018950000000007
:1032A000000000000197D1F70895FC01A7E0B0E00D
:1032B0000E942C33802D808381E090E00895FC01F2
:1032C0008081A7E0B0E0082E0E94343381E090E0D6
:1032D0000895DC010E942C33802D99270895FC016C
:1032E000A0E0B0E00E942C33402D4383A1E0B0E089
:1032F0000E942C33802D8283A2E0B0E00E942C3308
:10330000302D3183A3E0B0E00E942C33902D9083C8
:10331000A4E0B0E00E942C33202D830F840F890F8E
:10332000281719F481E090E008958FEF9FEF08953A
:10333000FC01A5E0B0E00E942C33802D808381E069
:1033400090E00895FC01A6E0B0E00E942C33802DAF
:10335000808381E090E00895AC0120E030E0D90165
:1033600018960E942C33802DFA01E20FF31F808300
:103370002F5F3F4F2031310591F781E090E00895B4
:10338000DC01062E0E9434330895FC018081A6E002
:10339000B0E0082E0E94343381E090E00895AC0143
:1033A00020E030E0D9011896FA01E20FF31F808186
:1033B000082E0E9434332F5F3F4F2031310591F7A3
:1033C00081E090E00895F89408957894089585E652
:1033D00090E008950E9434270895EF92FF920F9392
:1033E0001F93CF93DF93EC018B017A0189858230A3
:1033F00021F080916C06888301C0188280916C0650
:10340000843020F060E087E00E94CC1C8985823007
:1034100029F080916C068F5F80936C0680916C061A
:10342000882319F481E080936C068881992787FDB1
:103430009095FC0145E0EE0FFF1F4A95E1F7E80F7C
:10344000F91FE052FA4F118300838881992787FD85
:103450009095FC0135E0EE0FFF1F3A95E1F7E80F7C
:10346000F91FE052FA4F888582878881992787FD66
:103470009095FC0125E0EE0FFF1F2A95E1F7E80F7C
:10348000F91FE052FA4F83E081872881822F992724
:1034900087FD9095FC0105E0EE0FFF1F0A95E1F70F
:1034A000E80FF91FE052FA4F20878881992787FD9E
:1034B0009095FC0115E0EE0FFF1F1A95E1F7E80F5C
:1034C000F91FE052FA4F15820881112707FD109568
:1034D0002B853C854D855E856F85788989899A899C
:1034E0000E944F25F801B5E0EE0FFF1FBA95E1F7F6
:1034F000E00FF11FE052FA4F948F838F088111275C
:1035000007FD10952B8D3C8D4D8D5E8D6F8D78A1B7
:1035100089A19AA10E944F25F801A5E0EE0FFF1F97
:10352000AA95E1F7E00FF11FE052FA4F968B858BD9
:103530008881992787FD9095FC0175E0EE0FFF1FAC
:103540007A95E1F7E80FF91FE052FA4F85899689DD
:10355000238D348D820F931F908F878B08811127C5
:1035600007FD10952B893C894D895E896F89788D7F
:10357000898D9A8D0E944F25F80165E0EE0FFF1F9F
:103580006A95E1F7E00FF11FE052FA4F968F858FB1
:103590008881992787FD9095FC0155E0EE0FFF1F6C
:1035A0005A95E1F7E80FF91FE052FA4F858D968D95
:1035B000928F818F8881992787FD9095FC0145E046
:1035C000EE0FFF1F4A95E1F7E80FF91FE052FA4F9F
:1035D00081E090E090A3878F8881992787FD90955F
:1035E000FC0135E0EE0FFF1F3A95E1F7E80FF91FF8
:1035F000E052FA4FF382E2828881992787FD909505
:10360000FC0125E0EE0FFF1F2A95E1F7E80FF91FF7
:10361000E052FA4F81E0848781E090E0DF91CF9122
:103620001F910F91FF90EF9008958F929F92AF920C
:10363000BF92CF92DF92EF92FF920F931F93CF939F
:10364000DF9368EEA62E65E0B62ECC24DD2445017E
:10365000EC2CF501F080FFEFFF1691F0E40100E0A3
:1036600010E0E01639F08881F81621F46F2D85E01E
:103670000E94CC1C0F5F1F4FA1960430110589F7E3
:103680000894C11CD11C81E290E0A80EB91E94E000
:10369000C916D104E9F60E94F120282F332727FD0F
:1036A0003095F90155E0EE0FFF1F5A95E1F7E20F53
:1036B000F31FE052FA4F328530937F0621E28202F7
:1036C000C001112480529A4F90937E0680937D060C
:1036D00090936F0680936E06309370060E94332E8F
:1036E0000E94192E0E94572EFFCF0F931F93CF9346
:1036F000DF93CDB7DEB7A3970FB6F894DEBF0FBE4A
:10370000CDBF0E94D31D80936D068F3F21F460E0F2
:103710008EE00E94CC1C0E948A2D882321F460E058
:1037200086E00E94CC1C1092700610927E061092C9
:103730007D0610926F0610926E0610927F06109210
:103740007C068FEF809366068093680680936706F9
:103750008093690680936B0680936A06E0EEF5E03D
:1037600083E682878FEF8087B19626E0E436F20702
:10377000B9F7E0E8F6E0CF01059694838383F783F9
:10378000E683FC0126E084399207A9F710928206AD
:103790001092810610929806109297061092730666
:1037A0001092720644979093DF058093DE0560E1E6
:1037B00077E28E010F5F1F4FC8010E94D72D40E8AE
:1037C00050E069E175E0C8010E94382E85E58093DC
:1037D000190519861C8E1D8E1E8E1F8E18A219A209
:1037E0001AA21BA291E0988782E08A879B87C80172
:1037F0000E94DA23A3960FB6F894DEBF0FBECDBFAA
:10380000DF91CF911F910F910895F894FFCFE09130
:103810007D06F0917E0684870895E0917D06F09103
:103820007E06848599270895DC01FB0180911805A7
:10383000882319F480E090E0089580838091C50387
:103840008C9381E090E008951F9380911805882360
:1038500009F49EC00E94E3190E94E31980EA93E0F4
:103860000E94ED188091C50399279F938F9389E655
:1038700092E09F938F930E949F308CE993E00E9487
:10388000ED180F900F900F900F90809118058431D4
:1038900010F010921805809118059927AA27BB27C8
:1038A000FC013197E231F105F0F5EA59FF4FEE0FD7
:1038B000FF1F0590F491E02D099485E793E035C052
:1038C00081E693E032C08BE493E02FC080E393E085
:1038D0002CC08AE193E029C082E093E026C08FEEFD
:1038E00092E023C08CED92E020C08EEB92E01DC0F0
:1038F00089E992E01AC08DE892E017C082E792E071
:1039000014C083E692E011C082E592E00EC08EE31F
:1039100092E00BC08EE192E008C086E092E005C024
:103920008BEE91E002C084EE91E00E94ED18609170
:10393000A9067091AA068DE090E00E947230609115
:10394000A9067091AA068AE090E00E94723082E097
:1039500090E00E943F1883E090E00E94221810E05F
:1039600088EE93E00E94452A1F5F1436C9F783E072
:1039700090E00E943F1882E090E00E94221810E040
:1039800088EE93E00E94452A1F5F1436C9F7DFCF07
:1039900080E090E01F910895809318056093C5031F
:1039A0000E94241C089580931805E0917D06F091F3
:1039B0007E0680858093C5030E94241C0895992764
:1039C00087FD9095FC0125E0EE0FFF1F2A95E1F79A
:1039D000E80FF91FE052FA4FA281B3818C9185352F
:1039E00029F085E58C938FEF9FEF08958081918179
:1039F0008050924218F481E090E0089582E10E94A4
:103A0000D31C8FEF9FEF08956F927F928F929F92BA
:103A1000AF92BF92CF92DF92EF92FF920F931F93DC
:103A2000CF93DF938CEA93E00E94ED18E0917D063E
:103A3000F0917E068085992787FD90959F938F93BF
:103A40008CE692E09F938F930E949F30E0917D06D9
:103A5000F0917E06028113811F930F9385E792E018
:103A60009F938F930E949F30F801808199279F93A5
:103A70008F9352E8C52E52E0D52EDF92CF920E944E
:103A80009F30E0917D06F0917E06808191819F9329
:103A90008F934FE8E42E42E0F42EFF92EF920E94C3
:103AA0009F3080917D0690917E069F938F9309E9C8
:103AB00012E01F930F930E949F30C0EED5E0AA241E
:103AC000BB248DB79EB744960FB6F8949EBF0FBE29
:103AD0008DBF39EA632E32E0732E4601670178010B
:103AE0000A811B811F930F93BF92AF927F926F92B7
:103AF0000E949F30F801808199279F938F939F9216
:103B00008F920E949F30888199819F938F93DF923B
:103B1000CF920E949F30DF93CF93FF92EF920E944B
:103B20009F300894A11CB11CA1968DB79EB74296F8
:103B30000FB6F8949EBF0FBE8DBF94E0A916B104D6
:103B400079F6DF91CF911F910F91FF90EF90DF9069
:103B5000CF90BF90AF909F908F907F906F9008957F
:103B6000CF93DF93E0917D06F0917E06C281D381F1
:103B70008881853539F00E94041D81E00E94D31CA4
:103B800085E58883E0917D06F0917E0680819181B4
:103B90008050924228F00E94041D82E10E94D31CB2
:103BA000DF91CF9108954091F1035091F20360911C
:103BB000F3037091F40320E030E0DB01CA01022E30
:103BC00004C0B695A795979587950A94D2F781700A
:103BD0009070892BE9F481E090E0A0E0B0E0022E43
:103BE00004C0880F991FAA1FBB1F0A94D2F7842B09
:103BF000952BA62BB72B8093F1039093F203A09300
:103C0000F303B093F403822F992787FD90950895CD
:103C10002F5F3F4F2032310581F68FEF9FEF0895E0
:103C2000E0917D06F0917E06658576858785908991
:103C30000895EF92FF920F931F9321E030E040E050
:103C400050E004C0220F331F441F551F8A95D2F73E
:103C5000E0917D06F0917E06E584F6840785108963
:103C6000DA01C9018E219F21A023B1230097A1056C
:103C7000B10519F48FEF9FEF1AC02095309540954C
:103C80005095E222F32204231523E586F686078762
:103C9000108B81899289A389B48982239323A423D9
:103CA000B523818B928BA38BB48B81E090E01F9125
:103CB0000F91FF90EF900895682F772767FD70951B
:103CC0008091F1039091F203A091F303B091F4037A
:103CD000062E04C0B695A795979587950A94D2F7B6
:103CE00081709070892B19F48FEF9FEF0895E09108
:103CF0007D06F0917E0621E030E040E050E004C017
:103D0000220F331F441F551F6A95D2F7858596856C
:103D1000A785B089822B932BA42BB52B85879687FB
:103D2000A787B08B81E090E00895382F80917C06C2
:103D3000882319F080E090E00895809166068F3F17
:103D400011F420E007C0809169068F3F11F022E056
:103D500001C021E0822F9927FC01EE0FFF1FE80F21
:103D6000F91FEA59F94F32833083618381E08093F0
:103D70007C0683E0289FC00111248A59994F089539
:103D800026E08636920711F480E007C089569640F7
:103D900019F08FEF9FEF089581E0992787FD9095A7
:103DA00008950E94C01E8F3F11F481E002C082304E
:103DB00029F40E94071C8FEF9FEF0895992787FD34
:103DC0009095FC01EE0FFF1FE80FF91FEA59F94F1C
:103DD0008FEF80838283818380917C0681508093E2
:103DE0007C0681E090E008950E94C01E8F3F11F490
:103DF00081E002C0823029F40E94071C8FEF9FEF00
:103E00000895992787FD9095FC01EE0FFF1FE80F9D
:103E1000F91FEA59F94F8281992787FD90950895F6
:103E20001F93CF93DF930E94C01E182F8F3F11F472
:103E300081E003C0823031F482E00E94071C8FEFE2
:103E40009FEF3EC0992787FD9095EC01CC0FDD1FB9
:103E5000C80FD91FCA59D94F9A818881981774F50C
:103E60000E94E3198A818F5F8A83E0917D06F09139
:103E70007E061482E7EEF5E0212F332727FD3095EB
:103E8000432F532F8081823091F482859385A485BE
:103E9000B58582179307A407B50749F483E08283A9
:103EA0001786168610821286138614861586B1969A
:103EB00086E0EB36F80731F70E94E51981E090E0E3
:103EC000DF91CF911F910895DF92EF92FF920F93B0
:103ED0001F93E1E0EE2EF12C012D112D04C0EE0C0C
:103EE000FF1C001F111F8A95D2F78091F10390915A
:103EF000F203A091F303B091F4038E219F21A0233C
:103F0000B1230097A105B10511F481E043C00E94DF
:103F1000E319E7EEF5E0DD2480818130B9F4828594
:103F20009385A485B5858E219F21A023B123009779
:103F3000A105B10559F083E08283178616861082A9
:103F4000E286F38604871587DD24D394808182304E
:103F5000A1F482859385A485B5858E159F05A0075C
:103F6000B10759F483E08283178616861082128681
:103F7000138614861586DD24D394B19686E0EB363D
:103F8000F80751F60E94E519DD2019F081E090E074
:103F900005C082E00E94071C8FEF9FEF1F910F91D9
:103FA000FF90EF90DF900895EF92FF920F931F9391
:103FB000CF93DF93C82FDD27C7FDD095F1E0EF2E1B
:103FC000F12C012D112D0C2E04C0EE0CFF1C001F36
:103FD000111F0A94D2F78091F1039091F203A091FE
:103FE000F303B091F4038E219F21A023B123009706
:103FF000A105B10519F48FEF9FEF5DC00E94E31991
:10400000E0EEF5E0A8019701209530954095509598
:1040100080858F3F41F185859685A785B0898E156E
:104020009F05A007B10739F4118A128A138A148AEE
:10403000178283E0818785859685A785B08982234D
:104040009323A423B52385879687A787B08B81897F
:104050009289A389B48982239323A423B523818BD6
:10406000928BA38BB48BB19686E0E436F80781F689
:104070002EEF3FEF4FEF5FEF04C0220F331F441FBF
:10408000551FCA95D2F78091F1039091F203A09148
:10409000F303B091F40382239323A423B5238093E5
:1040A000F1039093F203A093F303B093F4030E94FF
:1040B000E51981E090E0DF91CF911F910F91FF9082
:1040C000EF9008951F93CF93DF930E94C01E182F87
:1040D0008F3F11F481E003C0823031F482E00E940E
:1040E000071C8FEF9FEF3EC00E94E319812F992795
:1040F00087FD9095EC01CC0FDD1FC80FD91FCA5961
:10410000D94F8A818823D9F4E0917D06F0917E060B
:10411000878182608783E0917D06F0917E06812F02
:10412000992787FD9095A92FB92F818B928BA38B0F
:10413000B48B0E94E51980E090E00E9407238A81F9
:1041400081508A83E0917D06F0917E068981838784
:10415000E0917D06F0917E0681E084830E94E5195E
:1041600081E090E0DF91CF911F9108959B01AC0118
:10417000E0917D06F0917E0685859685A785B089BC
:1041800082239323A423B5230097A105B10529F425
:1041900060E070E080E090E00895218B328B438BEB
:1041A000548B81E0878300906D0604C05695479537
:1041B000379527950A94D2F7C90181709070892BA1
:1041C00019F00E94A22204C080E090E00E94072320
:1041D000E0917D06F0917E066189728983899489D8
:1041E0000895E0917206F0917306808199270895F1
:1041F000E0917206F091730603C00380F481E02D14
:104200003097D9F70895CF93DF93482FC091DE05FB
:10421000D091DF05209709F47AC0A0917206B09181
:1042200073061097B9F1992787FD90959C0165E079
:10423000220F331F6A95E1F7280F391F20523A4F9A
:104240008C919927BC0155E0660F771F5A95E1F7CD
:10425000680F791F60527A4FFB018481882329F00F
:104260009385F90182859817A8F0F9018481882344
:1042700031F0FB019285F9018385981758F0FB0115
:104280009285F9018285981728F0FD01A381B481F8
:104290001097B1F64883E091DE05F091DF052381A8
:1042A00034813093DF052093DE0580917206909172
:1042B0007306A817B907A1F4109731F0BC83AB833C
:1042C0001A821982FD0105C01C821B821A82198282
:1042D000F901D283C183D0937306C093720617C0CD
:1042E000FD0181819281A217B30751F09A838983DE
:1042F000BC83AB8381819281FC01D483C38304C0DE
:104300001C821B829A838983FD01D283C183DF9142
:10431000CF910895CF93DF93A0917206B091730669
:10432000109709F446C0482F552747FD50958C91AA
:1043300099278417950769F4ED01EB81FC81F093CF
:104340007306E09372061282118216C0D901232BE4
:1043500081F18C919927FD01238134818417950780
:10436000A9F7C181D2813C832B83838194810097FB
:1043700019F0FC01D283C183E091DE05F091DF05E5
:10438000309741F4B093DF05A093DE05ED011C8268
:104390001B8209C0ED01FC83EB83B283A183B09340
:1043A000DF05A093DE05E091DE05F091DF051282C6
:1043B0001182DF91CF910895E0917D06F0917E0604
:1043C0008085992708950E94CC2DE0917D06F0917B
:1043D0007E0685818823B9F70895FF920F931F9376
:1043E000CF93DF93CDB7DEB728970FB6F894DEBF33
:1043F0000FBECDBF29833A834B835C836D837E835D
:104400008F8398870E94B01D0E94E319E0917D067A
:10441000F0917E0681E0858381E090E090A3878F14
:104420000E940B2BF82E29813A814B815C816D8192
:104430007E818F8198850E944F25E0917D06F091C5
:104440007E060F2D1127800F911F968B858B87EF8E
:104450008F1570F00E94972A0E5F1F4F99278017C3
:10446000910734F08F2D8E5F8093AC050E949C2ABB
:104470000E94E5190E94E32181E090E028960FB6A2
:10448000F894DEBF0FBECDBFDF91CF911F910F918A
:10449000FF9008958F929F92AF92BF92CF92DF923A
:1044A000EF92FF920F931F93CF93DF93CDB7DEB7B9
:1044B00060970FB6F894DEBF0FBECDBF29873A874D
:1044C0004B875C876D877E878F87988BCE0101969F
:1044D0000E94B52689809A80AB80BC80CD80DE802A
:1044E000EF80F88409851A852B853C854D855E858E
:1044F0006F857889CE0109960E943024882319F4AB
:104500008FEF9FEF0CC029853A854B855C856D85C3
:104510007E858F8598890E94ED2181E090E06096EC
:104520000FB6F894DEBF0FBECDBFDF91CF911F91C4
:104530000F91FF90EF90DF90CF90BF90AF909F9042
:104540008F9008951F930E94E319E0917D06F091EA
:104550007E0681E0858386830E940B2B182F883F7F
:1045600080F40E94972A212F33272E5F3F4F9927EF
:104570008217930734F0812F8E5F8093AC050E94E1
:104580009C2A0E94E5190E94E32181E090E01F919E
:1045900008951F93CF93DF93CDB7DEB728970FB65B
:1045A000F894DEBF0FBECDBF29833A834B835C8373
:1045B0006D837E838F8398870E94E3190E940B2B63
:1045C000182F29813A814B815C816D817E818F8199
:1045D00098850E944F258330910518F48FEF9FEF47
:1045E0000CC0E0917D06F0917E06810F911D968BA7
:1045F000858B0E94E51981E090E028960FB6F8942B
:10460000DEBF0FBECDBFDF91CF911F9108950F93F5
:104610001F938C010E94E319E0917D06F0917E06C4
:1046200081E08583168B058B0E940B2B082F883F1A
:1046300080F40E94972A202F33272E5F3F4F99271F
:104640008217930734F0802F8E5F8093AC050E9411
:104650009C2A0E94E5190E94E32181E090E01F91CD
:104660000F910895FF920F931F93CF93DF938C01C7
:104670000E94E319E0917D06F0917E0681E085833A
:104680000E940B2BF82EE0917D06F0917E06C82F3C
:10469000DD270C0F1D1F168B058B87EF8F1568F01C
:1046A0000E94972A229699278C179D0734F08F2D08
:1046B0008E5F8093AC050E949C2A0E94E5190E949F
:1046C000E32181E090E0DF91CF911F910F91FF9066
:1046D00008951F93CF93DF93EC010E94B01D2097A4
:1046E00011F4C1E0D0E00E94E319E0917D06F09161
:1046F0007E0681E08583D0A3C78F0E940B2B182FE5
:10470000883F80F40E94972A212F33272E5F3F4F46
:1047100099278217930734F0812F8E5F8093AC0521
:104720000E949C2A0E94E5190E94E32181E090E00A
:10473000DF91CF911F9108951F930E94B01D0E9499
:10474000E319E0917D06F0917E0681E090E090A370
:10475000878F81E085830E940B2B182F883F80F480
:104760000E94972A212F33272E5F3F4F99278217C8
:10477000930734F0812F8E5F8093AC050E949C2AB2
:104780000E94E5190E94E32181E090E01F910895C5
:10479000E0917D06F0917E0680850E948A21E0915D
:1047A0007D06F0917E0684E081870E949C2381E053
:1047B00090E00895EF92FF920F931F93CF93DF93B2
:1047C000EC014B815C8169817A818D819E810E949F
:1047D000DB2DBC018F81882369F04B815C81EE2445
:1047E000FF2400E010E020E030E0CE010E94ED194F
:1047F0001F8216C08881992787FD9095FC01A5E04E
:10480000EE0FFF1FAA95E1F7E80FF91FE052FA4FEC
:104810008185833019F08FEF9FEF1BC07183608318
:104820008881992787FD9095FC0175E0EE0FFF1FA9
:104830007A95E1F7E80FF91FE052FA4F85899689DA
:10484000892B29F482E0818788810E94032181E0FD
:1048500090E0DF91CF911F910F91FF90EF9008951D
:104860008F929F92AF92BF92CF92DF92EF92FF9280
:104870000F931F93CF93DF93CDB7DEB760970FB63B
:10488000F894DEBF0FBECDBFFC0109831A832B83D2
:104890003C834D835E836F83788789869A86AB8657
:1048A000BC86CD86DE86EF86F88A2D813E814F81DB
:1048B000588589819A81AB81BC81AD84BE84CF84C7
:1048C000D888E984FA840B851C858E159F05A0077E
:1048D000B10708F43FC0E816F9060A071B0791F470
:1048E0002A153B054C055D05A8F12A193B094C0921
:1048F0005D09248335834683578310821182128297
:1049000013821CC02A153B054C055D05D0F40197A8
:10491000A109B1098E199F09A00BB10B8083918366
:10492000A283B383205036434546544C2A193B0991
:104930004C095D09248335834683578381E090E0E9
:104940000BC08E199F09A00BB10B80839183A283AA
:10495000B383ECCF80E090E060960FB6F894DEBFB2
:104960000FBECDBFDF91CF911F910F91FF90EF90C0
:10497000DF90CF90BF90AF909F908F900895FC01F3
:1049800013C080509A4CAA49BB4384839583A68365
:10499000B78380819181A281B3810196A11DB11D50
:1049A00080839183A283B38384819581A681B7811B
:1049B00080302AEC92072AE9A2072BE3B20708F716
:1049C00008958F929F92AF92BF92CF92DF92EF9213
:1049D000FF920F931F93CF93DF93CDB7DEB760970E
:1049E0000FB6F894DEBF0FBECDBFFC0109831A835A
:1049F0002B833C834D835E836F83788789869A8679
:104A0000AB86BC86CD86DE86EF86F88AAD80BE801A
:104A1000CF80D884ED84FE840F85188989859A8596
:104A2000AB85BC8529813A814B815C81820F931FC4
:104A3000A41FB51F80839183A283B383EA0CFB1C60
:104A40000C1D1D1DE482F58206831783CF010E9491
:104A5000BF2481E090E060960FB6F894DEBF0FBEF1
:104A6000CDBFDF91CF911F910F91FF90EF90DF901D
:104A7000CF90BF90AF909F908F90089560937406F1
:104A80007093750680937606909377062093780648
:104A90003093790640937A0650937B0608958F925F
:104AA0009F92AF92BF92CF92DF92EF92FF920F93BD
:104AB0001F93CF93DF93CDB7DEB728970FB6F89447
:104AC000DEBF0FBECDBF29833A834B835C836D83EA
:104AD0007E838F8398878D809E80AF80B884E980A5
:104AE000FA800B811C81E114F1040105110501F12B
:104AF00080E09AECAAE9BBE3880E991EAA1EBB1EB1
:104B0000C501B40123EB36EE4EE050E00E94D332F3
:104B100069010894E108F108010911098AE0EE0C25
:104B2000FF1C001F111F8A95D1F7CE0CDF1C09C096
:104B3000C501B40123EB36EE4EE050E00E94D332C3
:104B40006901B60102C06050744094E06130790799
:104B5000D0F78827992723EB36EE4EE050E00E94ED
:104B60008D32675A7C48884F9F4F681579058A05B2
:104B70009B0518F40894C11CD11CC60128960FB6D9
:104B8000F894DEBF0FBECDBFDF91CF911F910F9183
:104B9000FF90EF90DF90CF90BF90AF909F908F905D
:104BA00008952F923F924F925F926F927F928F92D1
:104BB0009F92AF92BF92CF92DF92EF92FF920F93AC
:104BC0001F93CF93DF93CDB7DEB728970FB6F89436
:104BD000DEBF0FBECDBF7B018C0173708070907003
:104BE00023EB36EE4EE050E00E948D326D837E83E3
:104BF0008F8398879AE016950795F794E7949A958E
:104C0000D1F7E982FA820B831C83988529803A8048
:104C10004B805C806D807E808F80222D332D442DD3
:104C2000552D662D772D882D28960FB6F894DEBF6A
:104C30000FBECDBFDF91CF911F910F91FF90EF90ED
:104C4000DF90CF90BF90AF909F908F907F906F90AC
:104C50005F904F903F902F900895AF92BF92CF9268
:104C6000DF92EF92FF920F931F93CF93DF93CDB715
:104C7000DEB728970FB6F894DEBF0FBECDBF2983ED
:104C80003A834B835C836D837E838F839887AD806B
:104C9000BE80CF80D884E980FA800B811C81E1142A
:104CA000F1040105110509F180E09AECAAE9BBE3E2
:104CB000A80EB91ECA1EDB1EC601B50123EB36EED7
:104CC0004EE050E00E94D3320894E108F108010957
:104CD00011096AE0EE0CFF1C001F111F6A95D1F745
:104CE000E20EF31E041F151F0AC0C601B50123EB17
:104CF00036EE4EE050E00E94D33279018A01C801BD
:104D0000B70104C060507440804090406130A4E01E
:104D10007A07A0E08A07A0E09A07A0F723EB36EE17
:104D20004EE050E00E948D32675A7C48884F9F4F7A
:104D30006A157B058C059D0528F40894E11CF11C7F
:104D4000011D111DC801B70128960FB6F894DEBFEA
:104D50000FBECDBFDF91CF911F910F91FF90EF90CC
:104D6000DF90CF90BF90AF900895EF92FF920F9396
:104D70001F93CF93DF93EC01809174069091750699
:104D8000A0917606B091770688839983AA83BB8326
:104D9000E0907806F090790600917A0610917B06F3
:104DA000EC82FD820E831F830E940B2B9927AA277A
:104DB000BB27BC01CD0123EB36EE4EE050E00E9454
:104DC0008D32E60EF71E081F191FEC82FD820E833E
:104DD0001F8313C080509A4CAA49BB438C839D8388
:104DE000AE83BF8388819981AA81BB810196A11D71
:104DF000B11D88839983AA83BB838C819D81AE81F9
:104E0000BF8180302AEC92072AE9A2072BE3B20780
:104E100008F7DF91CF911F910F91FF90EF900895C8
:104E20000E94B01D0E94972A8B3030F481E080935D
:104E300071060E94CC2D09C08AE090E00E94452AAC
:104E400082E0809371060E94C02D809119058535FE
:104E500019F088E00E94D31C80917E21853501F3F2
:104E600088E00E94D31CDCCF8F929F92AF92BF92BA
:104E7000CF92DF92EF92FF920F931F93CF93DF9326
:104E80000E94E3190E94532A0E945B2A4C018AEF78
:104E90000E949C2A6091AC0577278827992723EBED
:104EA00036EE4EE050E00E948D327B018C01809105
:104EB000780690917906A0917A06B0917B06E80E6B
:104EC000F91E0A1F1B1FC801B7010E94D332A80197
:104ED0009701261B370B480B590B80917406909154
:104EE0007506A0917606B09177061BC0E12C66E3AB
:104EF000F62E65E6062F64EC162FE20EF31E041F55
:104F0000151FC801B70123EB36EE4EE050E00E94BA
:104F1000D332A8019701261B370B480B590BD6013A
:104F2000C5015C016D010894A11CB11CC11CD11C00
:104F300020306AEC36076AE946076BE35607B0F69D
:104F40008093740690937506A0937606B0937706C7
:104F5000209378063093790640937A0650937B0627
:104F6000E0917D06F0917E068581882319F1818587
:104F7000843001F18781823029F0882341F08681D5
:104F8000882311F485E001C083E081870CC083E0B1
:104F90008187E0917D06F0917E061782E0917D0683
:104FA000F0917E061682E0917D06F0917E06808566
:104FB0000E948A21E0917D06F0917E06858D968D76
:104FC000892B91F16085662379F18185843061F1C7
:104FD000218D328D8091AC0599272817390750F41F
:104FE00082E00E94CC1CE0917D06F0917E06128E3C
:104FF000118E04C0281B390B328F218FE0917D0662
:10500000F0917E061085818D928D892B69F4612F38
:1050100083E00E94CC1CE0917D06F0917E0683E047
:105020008187812F0E948A21C0EED5E000E61AEE2A
:10503000CC24DD244C2D88858F3F09F489C01D8246
:10504000882391F18985843079F12D893E89809179
:10505000AC0599272817390728F0281B390B3E8BF8
:105060002D8B02C01E8A1D8A2F89388D281739077B
:1050700028F0281B390B388F2F8B0EC06B8D7C8D41
:105080008617970728F4681B790B788F6F8B04C0FD
:105090000E94AC32988F8F8B8F89988D892B21F449
:1050A0008B8D9C8D988F8F8B8985833009F050C0B4
:1050B0008D899E89892B09F043C08F818823A1F0B7
:1050C0008E81882389F081E090E0A0E0B0E000903C
:1050D0006D0604C0880F991FAA1FBB1F0A94D2F740
:1050E000898B9A8BAB8BBC8B1F821E821D822F8D6E
:1050F00038A18D8D9E8D2130310561F49A8F898F75
:1051000082E089878F89988D9E8B8D8B842F0E945A
:10511000032116C09A8F898F215030408B8D9C8D32
:10512000AC01249FC001259F900D349F900D112448
:105130009E8B8D8B988F8F8B81E090E098A38F8FC3
:105140008D899E89009721F08017910708F48C01C2
:105150000894C11CD11CA19654E0C516D10409F0D5
:1051600069CF0E94F120E82E992787FD9095FC01D8
:1051700025E0EE0FFF1F2A95E1F7E80FF91FE05237
:10518000FA4F428540937F0681E26E2D68029001BE
:10519000112420523A4F30936F0620936E06EE2072
:1051A00091F0858D968D892B51F0818D928D8A3F5E
:1051B000910528F480179107E0F48C011AC00B3F89
:1051C0001105B8F014C00B30110598F0C8010A970A
:1051D0008A3F910530F48C01099758F409E010E0FA
:1051E00008C00550114018F400EF10E002C00AEFAB
:1051F00010E04093700630937E0620937D06009366
:10520000AC050E940B2B99278017910740F00E9454
:105210000B2B082F11270E5F1F4F0093AC05EE20BC
:1052200011F010927106802F0E949C2A6EEE72E09F
:10523000C4010E94902B0E942A2E0E94572EDF91BB
:10524000CF911F910F91FF90EF90DF90CF90BF9083
:10525000AF909F908F9008952091990612161CF49C
:105260008FEF9FEF0895E22FFF27E7FDF095EE0FF8
:10527000FF1FEE0FFF1FDF01A656B94F6C93E456D8
:10528000F94F918380832F5F2093990681E090E00E
:1052900008950F931F93CF93DF93062F9091990654
:1052A000A92FBB27A7FDB09540E050E0682F7727D6
:1052B00034C04F5F5F4FE901CC0FDD1FCC0FDD1F06
:1052C000FE01E656F94F8081992787FD9095861754
:1052D000970719F5F901E256F94F8081882371F497
:1052E00081E08083FE01E456F94F0190F081E02DCA
:1052F00020E040E050E0602F80E00995C456D94F8F
:10530000E881F98120E040E050E0602F81E00995DC
:10531000812F992787FD909508C0142F242F3327BC
:105320002A173B0734F28FEF9FEFDF91CF911F9148
:105330000F910895E82FFF2780919906992787FDFF
:1053400090958E179F0734F481E00E94071C8FEF21
:105350009FEF0895EE0FFF1FEE0FFF1FE456F94F6A
:105360000190F081E02D20E040E050E083E00995DD
:10537000992787FD90950895242FE82FFF27809186
:105380009906992787FD90958E179F0734F481E041
:105390000E94071C8FEF9FEF0895EE0FFF1FEE0F87
:1053A000FF1FE456F94F0190F081E02D40E050E0FE
:1053B00084E00995992787FD90950895242FE82F7B
:1053C000FF2780919906992787FD90958E179F0753
:1053D00034F481E00E94071C8FEF9FEF0895EE0FD9
:1053E000FF1FEE0FFF1FE456F94F0190F081E02DF3
:1053F000AB0160E085E00995992787FD90950895B8
:10540000242FE82FFF2780919906992787FD9095F3
:105410008E179F0734F481E00E94071C8FEF9FEFE7
:105420000895EE0FFF1FEE0FFF1FE456F94F019096
:10543000F081E02DAB0160E086E00995992787FDBA
:1054400090950895E82FFF2780919906992787FD69
:1054500090958E179F0734F481E00E94071C8FEF10
:105460009FEF0895EE0FFF1FEE0FFF1FE456F94F59
:105470000190F081E02D20E040E050E060E082E02B
:105480000995992787FD9095089500000000000078
:1054900000000197D1F7089510928100089581E0EE
:1054A00080938100089583B5816083BD109285004B
:1054B000109284000895CF93DF93CDB7DEB7229783
:1054C0000FB6F894DEBF0FBECDBF809184009091DF
:1054D00085009A83898389819A8122960FB6F894F0
:1054E000DEBF0FBECDBFDF91CF9108951092B10006
:1054F000E0E7F0E080818D7F808380818E7F8083F4
:1055000008958093B2000895E0E7F0E08081836021
:10551000808383E08093B100089583B5826083BD6A
:105520001092B2001092A0051092AC0508958091DF
:10553000B3008F5F9927089581508093B300089539
:10554000882311F4109271008FEF9FEF0895882344
:1055500019F08FEF9FEF089510929500109294002C
:1055600081E090E00895882319F080E090E00895AC
:1055700080919400909195000895882319F08FEF01
:105580009FEF089582E08093710081E090E008959C
:10559000882319F08FEF9FEF0895CB0101970597AE
:1055A00010F46093AA051092900088E08093910017
:1055B000852F9927809399004093980030939C05FC
:1055C00020939B058091AA05813021F48091910060
:1055D00081600BC0823021F480919100826005C00F
:1055E000833031F48091910083608093910008C0F2
:1055F000843021F4809191008460F7CF853019F0D8
:1056000081E090E008958091910085608093910001
:1056100081E090E008958091B200992708950F925B
:105620000FB60F921F922F923F924F925F926F92FE
:105630007F928F929F92AF92BF92CF92DF92EF9222
:10564000FF920F931F932F933F934F935F936F930B
:105650007F938F939F93AF93BF93CF93DF93EF93FA
:10566000FF93A0917D06B0917E060DB60D920EB609
:105670000D921F92A091F603B091F7031E90BEBF4A
:10568000ADBF08951F920F920FB60F9211240F9085
:105690000FBE0F901F9018951F920F920FB60F928A
:1056A00011242F933F934F935F936F937F938F9327
:1056B0009F93AF93BF93EF93FF93E0919B05F0917E
:1056C0009C05309711F0099504C060E08AE00E94C3
:1056D000CC1CFF91EF91BF91AF919F918F917F91E2
:1056E0006F915F914F913F912F910F900FBE0F904F
:1056F0001F9018951F920F920FB60F9211242F939F
:105700003F934F935F936F937F938F939F93AF9349
:10571000BF93EF93FF9360E08AE00E94CC1CFFCF21
:10572000CF93DF93CDB7DEB722970FB6F894DEBFE5
:105730000FBECDBFFC018FEFE937F80710F0E0E0B6
:10574000F0E09F0144275527CB01AA27BB27280F4C
:10575000391F4A1F5B1F213080E0380781E048076E
:1057600080E0580778F080918400909185009A83BA
:10577000898389819A81E817F907A8F3205030407E
:105780004140504080918400909185009A838983A4
:1057900089819A8182179307A8F322960FB6F8940D
:1057A000DEBF0FBECDBFDF91CF910895EF92FF9284
:1057B0001F939EEF9093AC0580E28093B600909388
:1057C000B30013E017BB82E08093B00091EBE92EA9
:1057D000F12CF701108383B5826083BD17BB14BD24
:1057E00083B5826083BD1092800081E08093810048
:1057F000109285001092840083B5826083BD83B5CA
:10580000816083BD0E948D2AE0E7F0E080818360A3
:105810008083F70110831092A0051F91FF90EF90F5
:105820000895882311F4E89A33C0813011F4E99A7D
:105830002FC0823011F4EA9A2BC0833021F480917A
:105840006B00816023C0843021F480916B00826002
:105850001DC0853021F480916B00846017C08630B4
:1058600021F480916B00886011C0873021F4809111
:105870006B0080610BC0883021F480916B008062E6
:1058800005C0893041F480916B00806480936B0087
:1058900081E090E008958A3019F08FEF9FEF08952E
:1058A00080916B00806880936B0081E090E00895A8
:1058B000882311F4E89831C0813011F0823011F45E
:1058C000E9982BC0833021F480916B008E7F23C038
:1058D000843021F480916B008D7F1DC0853021F4D0
:1058E00080916B008B7F17C0863021F480916B0014
:1058F000877F11C0873021F480916B008F7E0BC0B1
:10590000883021F480916B008F7D05C0893041F48F
:1059100080916B008F7B80936B0081E090E0089515
:105920008A3019F08FEF9FEF089580916B008F7789
:1059300080936B0081E090E00895882339F55093BF
:10594000A2064093A106662321F4809169008C7F12
:1059500045C0613049F4809169008D7F8093690072
:105960008091690081603AC0623049F48091690099
:10597000826080936900809169008E7F2FC06330C0
:1059800009F069C080916900836028C0813049F5C1
:105990005093A00640939F06662321F480916900EE
:1059A000837F1CC0613049F480916900877F8093B8
:1059B000690080916900846011C0623049F480916F
:1059C0006900886080936900809169008B7F06C0C0
:1059D000633009F040C0809169008C608093690059
:1059E00037C0823031F55093A00640939F0666235E
:1059F00021F4809169008F7CF1CF613049F480916E
:105A000069008F7D80936900809169008061E6CF95
:105A1000623049F4809169008062809369008091CE
:105A200069008F7EDBCF6330B1F4809169008063C1
:105A3000D5CF8350883018F08FEF9FEF0895809175
:105A400068008160809368005093A6064093A50685
:105A500081E090E0089581E090E008951F920F9218
:105A60000FB60F9211242F933F934F935F936F9331
:105A70007F938F939F93AF93BF93EF93FF93E091A7
:105A8000A106F091A206309711F0099504C060E0DC
:105A90008AE00E94CC1CFF91EF91BF91AF919F9142
:105AA0008F917F916F915F914F913F912F910F90C7
:105AB0000FBE0F901F9018951F920F920FB60F9266
:105AC00011242F933F934F935F936F937F938F9303
:105AD0009F93AF93BF93EF93FF93E091A506F0914F
