:100000000C94E7010C94422A0C9406020C9406020C
:100010000C9406020C9406020C9406020C94060240
:100020000C9406020C94702A0C9406020C9406029E
:100030000C9406020C9423280C9406020C9423289A
:100040000C9406020C9456280C9406020C9406029A
:100050000C9406020C9406020C9406020C94060200
:100060000C9406020C9406020C9406020C940602F0
:100070000C9406020C9406020C9406020C940602E0
:100080000C9460280C9406020C9406020C94060250
:100090000C94F7160C9406020C9406020C940602BB
:1000A0000C9406020C9406020C9406020C940602B0
:1000B0000C9406020C9406020C9406020C940602A0
:1000C0000C9406020C9406020C940602841A881AF8
:1000D0008A1A8C1A8E1A901A951A921A981A9B1AC2
:1000E0009E1AA41AA71AAA1AAD1AA11A821A861A57
:1000F0004552524F522073657474696E6720626D69
:10010000616320726174650D0A00424D41432045D0
:1001100052524F523A206372656174696E6720656E
:100120006E61626C65207369676E616C20666169DF
:100130006C65640D0A00424D4143204552524F52B6
:100140003A206372656174696E6720747820736900
:10015000676E616C206661696C65640D0A00424DD2
:100160004143204552524F523A206372656174698F
:100170006E67207278207369676E616C20666169B2
:100180006C65640D0A0043433234323020455252CC
:100190004F523A202052656C65617365206F66206E
:1001A00073656D6170686F7265206661696C656406
:1001B0000D0A00434332343230204552524F523AF6
:1001C000202041636365737320746F2073656D61D4
:1001D00070686F7265206661696C65640D0A005510
:1001E0004E4B4F574E004661696C656420746F201A
:1001F0006372656174652053656D6170686F7265C7
:10020000004661696C656420746F20637265617477
:1002100065205369676E616C004B65726E656C207A
:1002200066756E6374696F6E206E6F7420696D7091
:100230006C656D656E746564004465766963652000
:10024000447269766572204572726F7200576174EC
:100250006368646F672052657374617274005469D7
:100260006D6572204F766572666C6F7700556E68AB
:10027000616E646C656420496E7465727275707429
:1002800020566563746F72004C6F7720566F6C74E4
:10029000616765004578747261205461736B2073E7
:1002A0007461727465642C206973206E726B5F6375
:1002B00066672E68206F6B3F0049646C65206F7223
:1002C000204B65726E656C20537461636B204F76B2
:1002D0006572666C6F7700556E65787065637465DE
:1002E000642052657374617274004475706C696344
:1002F00061746564205461736B20494400536368E2
:100300006564756C6572204D69737365642057610F
:100310006B657570005461736B20526573657276FE
:10032000652056696F6C617465640052657365720F
:100330007665204572726F7220696E20536368651E
:1003400064756C657200496E76616C6964205374E3
:1003500061636B20506F696E746572005461736BDA
:1003600020537461636B204F766572666C6F770003
:10037000537461636B20776173206E6F74206465C2
:1003800066696E6564206173206C617267652065C3
:100390006E6F7567682100293A20002A4E524B2063
:1003A0004552524F5228000D0A535441434B2044AA
:1003B000554D500D0A0045464765666700202B2DB8
:1003C0002E30313233343536373839680000112455
:1003D0001FBECFEFD1E2DEBFCDBF12E0A0E0B2E0A2
:1003E000E6E9F0E600E00BBF02C007900D92A23AEA
:1003F000B107D9F716E0A2EAB2E001C01D92AA3A0D
:10040000B107E1F70E948F030C944A300C948E28B8
:1004100081E692E09093F3038093F20387E493E004
:100420009093EF038093EE0388EC92E09093F103B6
:100430008093F00382E08093F50381E08093F403DE
:100440008093F6038093F7031092F8031092F90358
:100450001092FA031092FB0380E09AE5A2E6B2E064
:100460008093FC039093FD03A093FE03B093FF03DE
:1004700010920004109201041092020410920304DE
:100480008093040490930504A0930604B09307049A
:10049000109208041092090410920A0410920B049E
:1004A00010920C0410920D0410920E0410920F047E
:1004B0008DEE93E00E94072280E092E00E94CA2D18
:1004C00008958F929F92AF92BF92CF92DF92EF9258
:1004D000FF920F931F93CF93DF93CDB7DEB72A9789
:1004E0000FB6F894DEBF0FBECDBF0E94092099273A
:1004F0009F938F938DE092E09F938F930E94B32DF3
:1005000089E10E943A061B821C821D821E8280E0C5
:100510009AE5A2E6B2E08F839887A987BA872B81F4
:100520003C814D815E816F81788589859A850E94A5
:1005300008040F900F900F900F908F3F21F480EFE1
:1005400090E00E94E41664E787E793E00E94D003FE
:100550000E940E07E090320261E08E2D0E94D414BA
:10056000F090310261E08F2D0E94D4140091260298
:1005700061E0802F0E94D4141091270261E0812F46
:100580000E94D41492E0892E912C8C0E9D1E5E0147
:100590000894A11CB11C8EE1C82E82E0D82E0E94C6
:1005A0000306B401C5010E94700780917903992761
:1005B0009F938F938091770399279F938F93DF92D7
:1005C000CF920E94B32D8DB79EB706960FB6F894C2
:1005D0009EBF0FBE8DBF80917703813419F08234A6
:1005E00081F408C083E090E00E9419168E2D0E94CD
:1005F000801207C083E090E00E9436168E2D0E9484
:100600000513809179038C3409F444C08D3448F487
:10061000823409F45FC0843479F18D3209F06FC0FF
:1006200007C0823509F448C0853509F068C00EC09E
:10063000802F0E948012812F0E9480128F2D0E9495
:10064000801280E090E00E9419160DC0802F0E9459
:100650000513812F0E9480128F2D0E94801280E04E
:1006600090E00E94361681E090E00E94191682E028
:1006700090E00E94191643C0802F0E948012812FA3
:100680000E9405138F2D0E94801280E090E00E944E
:1006900019160DC0802F0E940513812F0E9405138B
:1006A0008F2D0E94801280E090E00E94361681E03B
:1006B00090E00E943616DBCF802F0E948012812F9F
:1006C0000E9480128F2D0E94051380E090E00E940E
:1006D00019160DC0802F0E940513812F0E948012D1
:1006E0008F2D0E94051380E090E00E94361681E075
:1006F00090E00E94191682E090E00E9436160E9457
:10070000FF034DCF83E090E00E94FC150E94C921B9
:1007100081E090E00E94FC150E94C921F3CFCFEF49
:10072000D1E2DEBFCDBF0E94791287E090E00E9447
:10073000AE160E946C1980E090E00E94191681E0CC
:1007400090E00E94191682E090E00E94191683E062
:1007500090E00E94191620E030E040E050E060E0B8
:1007600070E080E090E00E946B230E9465040E948C
:1007700008020E940C1980E090E00C944A30089521
:100780008FEF9FEF089580E090E0089590934903E4
:100790008093480381E090E008958093A202089539
:1007A000009719F48FEF9FEF0895909316058093AB
:1007B00015056093140581E08093AE0581E090E01B
:1007C00008959C018091A005813019F48FEF9FEF6F
:1007D000089581E08093A00530934C0320934B0350
:1007E00060934A0381E090E0089520E030E080913A
:1007F000AE05882311F421E030E0C901089581E0BD
:100800008093AE0581E090E0089510929F050895D1
:10081000CF93DF93CDB7DEB728970FB6F894DEBF3E
:100820000FBECDBF29833A834B835C836D837E8368
:100830008F8398872D813E814F81588589819A8148
:10084000AB81BC810097A105B10559F420306DE260
:10085000360761E3460761E0560718F48FEF9FEF14
:1008600012C08093A2059093A305A093A405B09312
:10087000A5052093A6053093A7054093A80550939E
:10088000A90581E090E028960FB6F894DEBF0FBE70
:10089000CDBFDF91CF91089580919E05992787FD67
:1008A00090950895823018F481E090E008958830A2
:1008B00008F086E091E020E030E0990F2F5F3F4F95
:1008C0002817D8F3892F992708950F931F9304EAC7
:1008D00012E06DE177E0C8010E94EB2A40E850E0A9
:1008E00060E974E0C8010E944C2B84E18093AC0263
:1008F00081E08093AB028093AD028093AE021092B0
:10090000AF021092B0021092B1021092B20280E0D7
:100910009DE2A1E3B1E08093B3029093B402A0936F
:10092000B502B093B6028AE090E0A0E0B0E0809318
:10093000B7029093B802A093B902B093BA02109292
:10094000BB021092BC021092BD021092BE02109225
:10095000BF021092C0021092C1021092C202109205
:10096000C3021092C4021092C5021092C602C801BE
:100970000E9407221F910F91089581E080939F05A7
:100980008091C7020E94911D08950F931F930E94AA
:10099000130C8AEF90E00E94592709B10E94FB0BCB
:1009A000112784E0169507958A95E1F7C8018170B3
:1009B00090701F910F910895EF92FF920F931F93E4
:1009C0008091A202882309F463C02091A20530918E
:1009D000A3054091A4055091A5056091A6057091CD
:1009E000A7058091A8059091A9050E947C238C0100
:1009F0000E941D2D6AE070E00E94AF2FBC016F5F66
:100A00007F4FC8010E949B2FCB010E943421FF24FD
:100A1000F3940E94C504E82E81E0E816C9F10E9413
:100A20001D2D8C018F2D0E945204682F7727C8013D
:100A30000E94AF2F99270E9496212091A205309104
:100A4000A3054091A4055091A5056091A60570915C
:100A5000A7058091A8059091A9050E947C238C018F
:100A60000E941D2D6AE070E00E94AF2FBC016F5FF5
:100A70007F4FC8010E949B2FCB010E943421EE20A2
:100A800039F4F39486E08F1520F696E0F92EC1CF65
:100A90000E9444090E94FB082091A2053091A30501
:100AA0004091A4055091A5056091A6057091A705F8
:100AB0008091A8059091A9050E941A200E94E7083C
:100AC0000E940F090E94FB0B88E493E00E947A0CBD
:100AD0008093AA050E94FB0B1092A00580919A05B5
:100AE0000E94911D81E090E01F910F91FF90EF9087
:100AF00008950F931F936091AC0580E195E00E94EB
:100B0000E9100E94130C10E015C01F5F2091A20590
:100B10003091A3054091A4055091A5056091A605CB
:100B20007091A7058091A8059091A9050E941A20AF
:100B3000143061F00E94B608882339F30AC01F5FA1
:100B400084E690E00E945927133321F40E94FB0BA6
:100B50000AC010E00E94A409082F882381F30E9494
:100B6000FB0B013019F080E090E004C01092AE055C
:100B700081E090E01F910F91089580919A050E9465
:100B8000891C80919A05992787FD909508958091F9
:100B900076030E94891C80917603992787FD9095A2
:100BA00008951F93CF93DF93EC01162F8091A0053A
:100BB000813019F180919A050E94891C81E080930F
:100BC000A005D0934C03C0934B0310934A0361E0FC
:100BD00070E080E090E000909A0504C0660F771FF7
:100BE000881F991F0A94D2F70E94E31E8091AA05DC
:100BF000882319F081E090E002C08FEF9FEFDF9132
:100C0000CF911F910895809176030E94891C61E025
:100C100070E080E090E00090760304C0660F771FDC
:100C2000881F991F0A94D2F70E94E31E0090760352
:100C300004C096958795779567950A94D2F760FDDD
:100C400003C08FEF9FEF089581E090E00895682F33
:100C50008B3118F08FEF9FEF08958093AC0520E063
:100C600030E04FEF5FEF80E195E00E94261181E0D8
:100C700090E008951F93182F8FEF80939B0581E0DC
:100C80008093A2021092A2051092A3051092A405CF
:100C90001092A50580E091EEA5EFB5E08093A60542
:100CA0009093A705A093A805B093A9050E94001CE6
:100CB000809376038F3F19F48EE591E008C00E947F
:100CC000001C80939A058F3F79F486E391E00E949F
:100CD000E416E0917C06F0917D0660858EE00E942E
:100CE000F91A8FEF9FEF5BC00E94001C8093C70230
:100CF0008F3F19F48AE091E0EACF1092A00510929C
:100D0000AE0510921605109215051092140520E0FC
:100D100030E04FEF5FEF612F80E195E00E942611F8
:100D20001093AC05409883E18EBD0DB407FEFDCF56
:100D300085EE8EBD0DB407FEFDCF80E88EBD0DB4EF
:100D400007FEFDCF409A409885E18EBD0DB407FEA9
:100D5000FDCF80E88EBD0DB407FEFDCF8FEF8EBDB9
:100D60000DB407FEFDCF409A409887E18EBD0DB4CB
:100D700007FEFDCF8AE08EBD0DB407FEFDCF86E5F0
:100D80008EBD0DB407FEFDCF409A83ED0E947B0916
:100D900081E080939E0580939F0581E090E01F9104
:100DA00008950E947B0981E090E00895803218F058
:100DB0008FEF9FEF08950E94530C81E090E008951B
:100DC0000E94220881E090E008950E94FC0781E0E3
:100DD00090E00895603119F08FEF9FEF08950E9421
:100DE000FC0F81E090E008950E94B107992787FDEC
:100DF000909508950E94C10F81E090E008950E94AF
:100E00003B0881E090E008950E94560881E090E060
:100E100008950E94710881E090E008950E948F0873
:100E200081E090E00895643019F08FEF9FEF08950E
:100E30000E94B50781E090E0089502C00E94C92198
:100E400080919E058823D1F38091C7020E94891C5E
:100E500080919F05882349F18091AE05813061F42E
:100E60000E94C504882341F40E947905813021F451
:100E7000809176030E94911D8091A005813011F42C
:100E80000E94DC042091A2053091A3054091A405A5
:100E90005091A5056091A6057091A7058091A805C0
:100EA0009091A9050E941A20D3CF61E070E080E004
:100EB00090E00090C70204C0660F771F881F991F3B
:100EC0000A94D2F70E94E31E0090C70204C09695D0
:100ED0008795779567950A94D2F760FDB9CFE5CFEE
:100EE000FC01DB018091AE05882329F010821C9261
:100EF00080E090E00895809113058083809118052B
:100F00008C938091150590911605089599279C0161
:100F1000265A3E4B0B97880F991F880F991F280F51
:100F2000391FF894409888E18EBD0DB407FEFDCFBF
:100F3000832F99278EBD0DB407FEFDCF2EBD0DB4B6
:100F400007FEFDCF409A78940895F89440981EBC0F
:100F50000DB407FEFDCF8EB5409A789486FFF5CF8D
:100F600008958091C40599270895CF93DF93DC01FC
:100F7000409889EC8EBD0DB407FEFDCF80E88EBD94
:100F80000DB407FEFDCF92E09150FD01E90FF11D78
:100F900080818EBD0DB407FEFDCF9923A9F7409A3D
:100FA00040988BEC8EBD0DB407FEFDCF80E88EBD62
:100FB0000DB407FEFDCF92E09D012E5F3F4FE9018A
:100FC0009150F901E90FF11D80818EBD0DB407FE2E
:100FD000FDCF9923A1F7409A8C918093C505FD011F
:100FE00081818093C60588818093C7058381809322
:100FF000C805DF91CF910895409889E18EBD0DB469
:1010000007FEFDCF83E08EBD0DB407FEFDCF86E069
:101010008EBD0DB407FEFDCF409A40988AE18EBD8B
:101020000DB407FEFDCF8EE08EBD0DB407FEFDCFE3
:101030008EE08EBD0DB407FEFDCF409A81E0809317
:10104000B5050895409889E18EBD0DB407FEFDCF2A
:1010500081E08EBD0DB407FEFDCF84EC8EBD0DB4D6
:1010600007FEFDCF409A1092B50508958091B30513
:101070009091B40508952091B6053091B705386078
:101080003093B7052093B605409881E18EBD0DB42D
:1010900007FEFDCF832F99278EBD0DB407FEFDCF30
:1010A0002EBD0DB407FEFDCF409A08952091B605E0
:1010B0003091B705377F3093B7052093B605409838
:1010C00081E18EBD0DB407FEFDCF832F99278EBD24
:1010D0000DB407FEFDCF2EBD0DB407FEFDCF409A27
:1010E000089581E08093C3052091B6053091B7053E
:1010F00020613093B7052093B605409881E18EBDFD
:101100000DB407FEFDCF832F99278EBD0DB407FECA
:10111000FDCF2EBD0DB407FEFDCF409A089510926D
:10112000C3052091B6053091B7052F7E3093B705E2
:101130002093B605409881E18EBD0DB407FEFDCF2A
:10114000832F99278EBD0DB407FEFDCF2EBD0DB4A4
:1011500007FEFDCF409A089589B1992766E09695DC
:1011600087956A95E1F78170907008958CB1992701
:1011700087FD90958827990F881F9927089589B131
:101180009927E6E096958795EA95E1F7817090704A
:1011900008958091C905882319F480E090E00895AE
:1011A0008091C9051092C905992787FD90950895EA
:1011B000409888E08EBD0DB407FEFDCF409A409860
:1011C00088E08EBD0DB407FEFDCF409A0895809152
:1011D000B3059091B4050E948F1E409886E08EBDA5
:1011E0000DB407FEFDCF409A8091B3059091B405F0
:1011F0000E943D1D08958091B3059091B4050E9411
:101200008F1E409884E08EBD0DB407FEFDCF409A3E
:101210008091B3059091B4050E943D1D0895809181
:10122000B3059091B4050E948F1E409886E08EBD54
:101230000DB407FEFDCF409A409882E18EBD0DB4FB
:1012400007FEFDCF85E08EBD0DB407FEFDCF1EBCB1
:101250000DB407FEFDCF409A40988EE28EBD0DB4CE
:1012600007FEFDCF1EBC0DB407FEFDCF1EBC0DB4A6
:1012700007FEFDCF409A0E94D8088091B305909157
:10128000B4050E943D1D08958091B3059091B40569
:101290000E948F1E409886E08EBD0DB407FEFDCFE4
:1012A000409A409882E18EBD0DB407FEFDCF85E0E7
:1012B0008EBD0DB407FEFDCF88E08EBD0DB407FED8
:1012C000FDCF409A40988EE28EBD0DB407FEFDCF53
:1012D00088E18EBD0DB407FEFDCF1EBC0DB407FE28
:1012E000FDCF409A0E94D8088091B3059091B40533
:1012F0000E943D1D08950F931F93082F8091B30501
:101300009091B4050E948F1E112707FD1095302F74
:1013100022272068409883E18EBD0DB407FEFDCFE3
:10132000832F99278EBD0DB407FEFDCF2EBD0DB4C2
:1013300007FEFDCF409A8091B3059091B4050E94BD
:101340003D1D1F910F910895CF93DF93CDB7DEB769
:1013500024970FB6F894DEBF0FBECDBF8091B305C2
:101360009091B4050E948F1E679B34C21092C405F1
:10137000679B25C0319923C040988FE78EBD0DB47F
:1013800007FEFDCF1EBC0DB407FEFDCF8EB5409A03
:10139000409888E08EBD0DB407FEFDCF409A40987E
:1013A00088E08EBD0DB407FEFDCF409A8091B30555
:1013B0009091B4050E943D1D8FEF9FEF13C240989E
:1013C0008FE78EBD0DB407FEFDCF1EBC0DB407FE2A
:1013D000FDCF4EB5409A4F7719F540988FE78EBDF7
:1013E0000DB407FEFDCF1EBC0DB407FEFDCF8EB5BC
:1013F000409A409888E08EBD0DB407FEFDCF409A1C
:10140000409888E08EBD0DB407FEFDCF409A8091D4
:10141000B3059091B4050E943D1D8EEF9FEFE2C190
:1014200045308CF0E091B805F091B905242F3327B1
:1014300027FD30952B5030408481992787FD90956A
:1014400082179307F4F540988FE78EBD0DB407FE21
:10145000FDCF60E070E0242F332727FD309506C0D4
:101460001EBC0DB407FEFDCF6F5F7F4F862F9927FF
:101470008217930714F43199F3CF409A40988FE77D
:101480008EBD0DB407FEFDCF1EBC0DB407FEFDCF13
:101490008EB5409A409888E08EBD0DB407FEFDCF12
:1014A000409A409888E08EBD0DB407FEFDCF409A6B
:1014B0008091B3059091B4050E943D1D8DEF9FEF83
:1014C00091C1E091B805F091B9054C504383409823
:1014D0008FE78EBD0DB407FEFDCFFE0131969E0154
:1014E0002D5F3F4F1EBC0DB407FEFDCF8EB581931F
:1014F000E217F307B9F7409AE091B805F091B90502
:1015000089819A81B5E096958795BA95E1F78170C2
:10151000878340988FE78EBD0DB407FEFDCF1EBCBC
:101520000DB407FEFDCFE091B805F091B9058EB579
:101530008083409A40988FE78EBD0DB407FEFDCFA3
:1015400080E007C01EBC0DB407FEFDCF8F5F843066
:1015500011F03199F7CF409A40988FE78EBD0DB4C6
:1015600007FEFDCF20E030E01EBC0DB407FEFDCF2E
:10157000E091B805F091B905E20FF31F8EB58183B4
:101580002F5F3F4F2230310579F7409A89819A8148
:1015900083FF56C040988FE78EBD0DB407FEFDCF88
:1015A000EFEAF5E01EBC0DB407FEFDCF8EB58193CA
:1015B00085E0E33BF807B1F7409A409889E98EBD92
:1015C0000DB407FEFDCF80E88EBD0DB407FEFDCF44
:1015D00092E09150E92FFF27E155FA4F80818EBDAF
:1015E0000DB407FEFDCF9923A1F7409A40988BE9EF
:1015F0008EBD0DB407FEFDCF80E88EBD0DB407FE95
:10160000FDCF92E09150E92FFF27EF54FA4F8081F0
:101610008EBD0DB407FEFDCF9923A1F7409A4098E7
:101620008CE08EBD0DB407FEFDCF409A81E0809323
:10163000C405E091B805F091B90583818450838396
:1016400040988FE78EBD0DB407FEFDCF40E050E01F
:1016500011C01EBC0DB407FEFDCFE091B805F0919E
:10166000B9050580F681E02DE60FF11D8EB580836A
:101670004F5F5F4F642FE091B805F091B905242FBB
:1016800033278381992787FD9095281739070CF315
:10169000409A40988FE78EBD0DB407FC0AC0FCCF7E
:1016A0000DB407FEFDCF5EB5409A40988FE78EBD22
:1016B00002C01EBCF5CF0DB407FEFDCFFE01339670
:1016C0009E012B5F3F4F1EBC0DB407FEFDCF8EB5B4
:1016D0008193E217F307B9F7409AE091B805F091CA
:1016E000B9058B81808740E020E030E00AC0E091BE
:1016F000B805F091B90585819681A80FB91F8C9125
:10170000480F822FE091B805F091B9052F5F3F4F48
:10171000A82FBB278381992787FD9095A817B90724
:1017200034F3451719F140988FE78EBD0DB407FECD
:10173000FDCF1EBC0DB407FEFDCF8EB5409A40987C
:1017400088E08EBD0DB407FEFDCF409A409888E03A
:101750008EBD0DB407FEFDCF409A8091B3059091E8
:10176000B4050E943D1D8CEF9FEF3CC08C8187FF2C
:101770000EC08091C9058F5F8093C9058091B30524
:101780009091B4050E943D1D81E090E02BC04098EF
:101790008FE78EBD0DB407FEFDCF1EBC0DB407FE56
:1017A000FDCF8EB5409A409888E08EBD0DB407FEFF
:1017B000FDCF409A409888E08EBD0DB407FEFDCF66
:1017C000409A8091B3059091B4050E943D1D8BEF26
:1017D0009FEF08C08091B3059091B4050E943D1D14
:1017E00080E090E024960FB6F894DEBF0FBECDBF28
:1017F000DF91CF9108958091B3059091B4050E9437
:101800008F1E1092C005409886E08EBD0DB407FE75
:10181000FDCF409A1092C9058091B3059091B4050F
:101820000E943D1D08958091B3059091B4050E94DA
:101830008F1E81E08093C005409883E08EBD0DB47B
:1018400007FEFDCF409A409888E08EBD0DB407FE9C
:10185000FDCF409A1092C9058091B3059091B405CF
:101860000E943D1D08958091B3059091B4050E949A
:101870008F1E81E08093C005409883E08EBD0DB43B
:1018800007FEFDCF409A409888E08EBD0DB407FE5C
:10189000FDCF409A1092C9058091B3059091B4058F
:1018A0000E943D1D08951F93182F8091B3059091BC
:1018B000B4050E948F1E212F33272F713070206EA8
:1018C000306A409885E18EBD0DB407FEFDCF832FB1
:1018D00099278EBD0DB407FEFDCF2EBD0DB407FEBA
:1018E000FDCF409A8091B3059091B4050E943D1DB3
:1018F0001F910895EF92FF920F931F93CF93DF9361
:10190000CDB7DEB722970FB6F894DEBF0FBECDBFBE
:101910008C018091B3059091B4050E948F1E509167
:10192000B505552339F040988DE08EBD0DB407FE06
:10193000FDCF409AF8014281642F772767FD7095AB
:10194000A0E020E030E008C0F80183819481E80E37
:10195000F91EF7018081A80F822F2F5F3F4FE82EDD
:10196000FF24E616F70684F3942F945F51119C5FD1
:101970006799FECF4E99FCCFF894409889E08EBDD0
:101980000DB407FEFDCF409A409889E08EBD0DB49E
:1019900007FEFDCF409A40988EE38EBD0DB407FC44
:1019A00005C0FCCF0DB407FC30C1FCCF9EBDFACF03
:1019B00081E698E89A838983552329F089819A8161
:1019C00088609A83898340988EE38EBD0DB407FEAC
:1019D000FDCFFE0131969E012D5F3F4F80818EBD70
:1019E0000DB407FEFDCF3196E217F307B9F7409A21
:1019F00040988EE38EBD0DB407FC05C0FCCF0DB43E
:101A000007FC0EC1FCCF8091BA058EBDF8CF0DB496
:101A100007FEFDCF20E030E0F901E454FA4F808169
:101A20008EBD0DB407FEFDCF2F5F3F4F2230310535
:101A300099F7409A40988EE38EBD0DB407FEFDCF16
:101A400020E030E0F801E20FF31F80818EBD0DB47D
:101A500007FEFDCF2F5F3F4F2230310599F7409AA7
:101A600040988EE38EBD0DB407FEFDCF20E030E040
:101A7000F901E254FA4F80818EBD0DB407FEFDCF0F
:101A80002F5F3F4F2230310599F7409A552399F047
:101A900040988EE38EBD0DB407FEFDCFE5ECF5E07A
:101AA00080818EBD0DB407FEFDCF319685E0E93C07
:101AB000F807B1F7409A40988EE38EBD0DB407FE4B
:101AC000FDCF20E030E00DC0F80183819481480F04
:101AD000591FFA0180818EBD0DB407FEFDCF2F5F27
:101AE0003F4F422F55274617570774F3409A4098A7
:101AF0008EE38EBD0DB407FC05C0FCCF0DB407FC12
:101B000094C0FCCFAEBDFACF8091C005882339F4D4
:101B1000409883E08EBD0DB407FEFDCF409A4098FB
:101B20001EBC0DB407FEFDCF8EB5409A81FFF7CFE6
:101B300000E0409885E08EBD0DB407FEFDCF409AD1
:101B400040981EBC0DB407FEFDCF1EB5409A0F5F36
:101B5000053651F478948091B3059091B4050E94B4
:101B60003D1D80E090E068C084E690E00E9445174B
:101B700013FD08C0DECF409884E08EBD0DB407FE93
:101B8000FDCF409A78944E9BFECF4E99FECF809128
:101B9000C305882391F084EA92E00E944517319BA7
:101BA0000EC040988FE78EBD0DB407FEFDCF1EBC62
:101BB0000DB407FEFDCF8EB5409A11E00FC04098DE
:101BC00088E08EBD0DB407FEFDCF409A409888E0B6
:101BD0008EBD0DB407FEFDCF409A10E0F8944098FA
:101BE00086E08EBD0DB407FEFDCF409A78948091BB
:101BF000BA058F5F8093BA058091B3059091B405C3
:101C00000E943D1D812F992717C0409A81E498E8D2
:101C10009A8389838091C305882309F0C9CECCCEED
:101C2000409A40988EE38EBDF2CE409AF8018581AD
:101C3000882309F069CF9FCF22960FB6F894DEBFB4
:101C40000FBECDBFDF91CF911F910F91FF90EF900D
:101C50000895BF92CF92DF92EF92FF920F931F935E
:101C6000CF93DF93CDB7DEB722970FB6F894DEBFE0
:101C70000FBECDBF8C016B017A018091B3059091AD
:101C8000B4050E948F1E0E941F28409888E08EBDD8
:101C90000DB407FEFDCF409A409888E08EBD0DB48C
:101CA00007FEFDCF409A6799FECF4E99FCCFF8947E
:101CB000409889E08EBD0DB407FEFDCF409A409854
:101CC00089E08EBD0DB407FEFDCF409AF801628118
:101CD000462F552747FD5095BB2420E030E007C034
:101CE000F80183819481A80FB91F8C91B80E822FBF
:101CF0002F5F3F4FA82FBB27A417B5078CF3962F54
:101D0000945F40988EE38EBD0DB407FC05C0FCCFF8
:101D10000DB407FC16C1FCCF9EBDFACF81E698E852
:101D20009A83898340988EE38EBD0DB407FEFDCF64
:101D3000FE0131969E012D5F3F4F80818EBD0DB417
:101D400007FEFDCF3196E217F307B9F7409A4098A6
:101D50008EE38EBD0DB407FC05C0FCCF0DB407FCAF
:101D6000F9C0FCCF8091BA058EBDF8CF0DB407FE47
:101D7000FDCF20E030E0F901E454FA4F80818EBDC0
:101D80000DB407FEFDCF2F5F3F4F2230310599F78D
:101D9000409A40988EE38EBD0DB407FEFDCF20E043
:101DA00030E0F801E20FF31F80818EBD0DB407FE15
:101DB000FDCF2F5F3F4F2230310599F7409A409871
:101DC0008EE38EBD0DB407FEFDCF20E030E0F901BB
:101DD000E254FA4F80818EBD0DB407FEFDCF2F5F18
:101DE0003F4F2230310599F7409AB701C6010E9452
:101DF000A428F80185818823C1F18091C00588233A
:101E000039F4409883E08EBD0DB407FEFDCF409AB3
:101E100040981EBC0DB407FEFDCF8EB5409A81FFE1
:101E2000F7CFEE24409885E08EBD0DB407FEFDCFC0
:101E3000409A40981EBC0DB407FEFDCFFEB4409AF8
:101E4000E394F5E6EF1651F478948091B305909100
:101E5000B4050E943D1D80E090E083C084E690E0E0
:101E60000E944517F3FC08C0DDCF409884E08EBD8A
:101E70000DB407FEFDCF409A40988EE38EBD0DB4A1
:101E800007FEFDCFF8018281482F552747FD509569
:101E900020E030E00CC0F80183819481A80FB91FC5
:101EA0008C918EBD0DB407FEFDCF2F5F3F4FA22F4B
:101EB000BB27A417B5077CF3409A40988EE38EBDEC
:101EC0000DB407FC05C0FCCF0DB407FC48C0FCCF27
:101ED000BEBCFACF4E9BFECFF8944E99FECF4098F1
:101EE00088E08EBD0DB407FEFDCF409A409888E093
:101EF0008EBD0DB407FEFDCF409A409889E08EBD9F
:101F00000DB407FEFDCF409A409889E08EBD0DB418
:101F100007FEFDCF409A409886E08EBD0DB407FEC7
:101F2000FDCF409A78948091BA058F5F8093BA056F
:101F30008091B3059091B4050E943D1D81E090E031
:101F400010C0409AF8018681882309F0E7CE81E429
:101F500098E8E6CE409A40988EE38EBD07CF409A2F
:101F6000B9CF22960FB6F894DEBF0FBECDBFDF917A
:101F7000CF911F910F91FF90EF90DF90CF90BF9086
:101F80000895CF93DF93CDB7DEB722970FB6F894BD
:101F9000DEBF0FBECDBF9A8389839093BF05809328
:101FA000BE0584EF91E00E94592740988AEE8EBDCD
:101FB0000DB407FEFDCF80E88EBD0DB407FEFDCF4A
:101FC000FE0131969E012D5F3F4F80818EBD0DB485
:101FD00007FEFDCF3196E217F307B9F7409A84EF79
:101FE00091E00E94592722960FB6F894DEBF0FBEEB
:101FF000CDBFDF91CF9108956F927F928F929F9284
:10200000AF92BF92CF92DF92EF92FF920F931F9306
:10201000CF93DF93CDB7DEB722970FB6F894DEBF2C
:102020000FBECDBF8C0184E690E00E945927780155
:10203000C12CB1E0DB2E3E010894611C711CA3E0B1
:102040008A2E912C8C0E9D1EF701808121813327D1
:102050009927982F8827282B392B3A83298384E6C0
:1020600090E00E94592740988C2D80688EBD0DB459
:1020700007FEFDCFC60195958795807C8EBD0DB47A
:1020800007FEFDCF83015301F50180818EBD0DB4A4
:1020900007FEFDCF0894A11CB11CA814B904A1F738
:1020A000409A0894E11CF11C82E090E0C80ED91E11
:1020B00090E1C91691E0D90639F684E690E00E94D5
:1020C000592720E131E040E451E01A82198240981A
:1020D000842F80688EBD0DB407FEFDCFCA01959593
:1020E0008795807C8EBD0DB407FEFDCFF801808101
:1020F0008EBD0DB407FEFDCF3196EA15FB05B9F78D
:10210000409A4098822F80688EBD0DB407FEFDCFA7
:10211000C90195958795807C8EBD0DB407FEFDCFD6
:10212000F80180818EBD0DB407FEFDCF3196EA1512
:10213000FB05B9F7409A2E5F3F4F4E5F5F4FE1E0DE
:102140002E313E0711F681E090E09A838983409812
:102150008EEC8EBD0DB407FEFDCF80E88EBD0DB4B4
:1021600007FEFDCFF80180818EBD0DB407FEFDCFC7
:102170003196EA15FB05B9F7409A40988EE98EBD75
:102180000DB407FEFDCF80E88EBD0DB407FEFDCF78
:10219000F80180818EBD0DB407FEFDCF0F5F1F4F8C
:1021A0000A151B05A9F7409A22960FB6F894DEBFD0
:1021B0000FBECDBFDF91CF911F910F91FF90EF9098
:1021C000DF90CF90BF90AF909F908F907F906F9057
:1021D00008951F93CF93DF93EC01162F8091B305E1
:1021E0009091B4050E948F1E409888E08EBD0DB47A
:1021F00007FEFDCF409A409888E08EBD0DB407FEE3
:10220000FDCF409A812F0E948607D093B905C093D5
:10221000B8058091B3059091B4050E943D1DDF91F2
:10222000CF911F9108951F93182F8091B30590911E
:10223000B4050E948F1E812F0E9486078091B305EE
:102240009091B4050E943D1D1F910895DF92EF9279
:10225000FF920F931F93CF93DF93CDB7DEB72297F3
:102260000FB6F894DEBF0FBECDBF8C01D62E5A83B9
:10227000498379016AE081E00E94C21C9093B40511
:102280008093B305892B31F40E940920682F8FE0D9
:102290000E94F91A8091B3059091B4050E948F1E97
:1022A0008F3F21F483EB91E00E94E416159A88EEAB
:1022B00093E00E944517169881E090E00E94451730
:1022C000169A84E690E00E944517F894409881E0C1
:1022D0008EBD0DB407FEFDCF409A82EE92E0909342
:1022E000B7058093B605409881E18EBD0DB407FE19
:1022F000FDCF82E08EBD0DB407FEFDCF82EE8EBD18
:102300000DB407FEFDCF409A409882E18EBD0DB41A
:1023100007FEFDCF85E08EBD0DB407FEFDCF1EBCD0
:102320000DB407FEFDCF409A40988CE18EBD0DB4F0
:1023300007FEFDCF1EBC0DB407FEFDCF8FE78EBD9F
:102340000DB407FEFDCF409A409889E18EBD0DB4D3
:1023500007FEFDCF81E08EBD0DB407FEFDCF84ECFE
:102360008EBD0DB407FEFDCF409A409887E18EBD2B
:102370000DB407FEFDCF8AE18EBD0DB407FEFDCF83
:1023800086E58EBD0DB407FEFDCF409A84EF91E047
:102390000E945927409888EE8EBD0DB407FEFDCFF0
:1023A00080E88EBD0DB407FEFDCFFE0131969E0183
:1023B0002D5F3F4F80818EBD0DB407FEFDCF31965E
:1023C000E217F307B9F7409A84EF91E00E9459278A
:1023D00078948D2D0E94860778941093B905009308
:1023E000B80589819A819093BD058093BC05F092D0
:1023F000BF05E092BE051092BA051092C0050E947A
:10240000A5078091B3059091B4050E943D1D8F3FB3
:1024100039F486E891E00E94E41682E00E94FE19F9
:102420001092C3051092B5051092C40522960FB6FE
:10243000F894DEBF0FBECDBFDF91CF911F910F91FA
:10244000FF90EF90DF9008952091DC058091CA0500
:10245000281781F0E22FFF27E553FA4FE081822F02
:102460008F5F8093DC05803111F41092DC058E2F94
:10247000992708958091C80087FFFCCF8091C800FC
:102480008F778093C8008091CE0099270895882384
:1024900051F48091C000992787FD90958827990F66
:1024A000881F99270895813019F080E090E0089501
:1024B00020E030E09091DC058091CA05981711F07A
:1024C00021E030E0C901089585B7806185BF86E0CD
:1024D00084B987E085B981E087B988B98CE38DB983
:1024E0008BE08AB98EE38EB988E781B980E482B93E
:1024F00008950E94641280E58CBD81E08DBD089531
:102500008F3F09F47FC0482F55279A0127703070FC
:1025100022303105A9F12330310544F4211531056C
:1025200089F02130310509F06DC01CC0243031051F
:1025300009F446C0243031059CF12530310509F0FD
:1025400061C04EC022B1A3E056954795AA95E1F728
:1025500081E090E002C0880F991F4A95E2F7282B8E
:1025600022B94DC085B1F3E056954795FA95E1F74C
:1025700002C0220F331F4A95E2F7822B85B93FC074
:1025800028B1E3E056954795EA95E1F781E090E0C0
:1025900002C0880F991F4A95E2F7282B28B92FC04F
:1025A0002BB173E0569547957A95E1F781E090E07D
:1025B00002C0880F991F4A95E2F7282B2BB91FC03C
:1025C0002EB163E0569547956A95E1F781E090E07A
:1025D00002C0880F991F4A95E2F7282B2EB90FC029
:1025E00021B333E0569547953A95E1F781E090E0C5
:1025F00002C0880F991F4A95E2F7282B21BB81E082
:1026000090E008958FEF9FEF08958F3F09F486C003
:10261000482F55279A012770307022303105C1F1BB
:102620002330310544F42115310589F0213031057D
:1026300009F074C01DC02430310509F44BC02430AA
:102640003105BCF12530310509F068C054C022B114
:1026500073E0569547957A95E1F781E090E002C0E6
:10266000880F991F4A95E2F78095822382B953C05B
:1026700095B163E0569547956A95E1F702C0220F40
:10268000331F4A95E2F7822F8095892385B943C08D
:1026900028B133E0569547953A95E1F781E090E00F
:1026A00002C0880F991F4A95E2F78095822388B966
:1026B00032C02BB193E0569547959A95E1F781E0AA
:1026C00090E002C0880F991F4A95E2F78095822317
:1026D0008BB921C02EB183E0569547958A95E1F7D5
:1026E00081E090E002C0880F991F4A95E2F780953B
:1026F00082238EB910C021B3B3E056954795BA95A1
:10270000E1F781E090E002C0880F991F4A95E2F757
:102710008095822381BB81E090E008958FEF9FEF49
:1027200008958F3FA9F1282F3327C9018770907032
:1027300082309105A9F0833091052CF4009761F067
:10274000019731F50BC08430910571F0843091050B
:102750004CF00597E9F40AC080B109C083B107C005
:1027600086B105C089B103C08CB101C08FB1992772
:10277000E3E036952795EA95E1F702C095958795B0
:102780002A95E2F7992787FD9095817090700895BA
:102790008FEF9FEF08958F3F09F403C1282F332750
:1027A000A901477050704230510509F45CC04330B4
:1027B000510544F44115510591F04130510509F09E
:1027C000F0C034C04430510509F49BC04430510579
:1027D0000CF470C04530510509F0E3C0B9C080B1B8
:1027E000A90173E0569547957A95E1F79927042E4C
:1027F00002C0959587950A94E2F780FD0BC022B13F
:1028000081E090E002C0880F991F4A95E2F7282BDB
:1028100022B9C4C022B181E090E002C0880F991FA4
:102820004A95E2F78095822382B9B8C083B163E00C
:10283000369527956A95E1F79927022E02C095955E
:1028400087950A94E2F702C0440F551F2A95E2F7D4
:1028500080FD03C085B1842B04C095B1842F809581
:10286000892385B99BC086B1A90193E05695479508
:102870009A95E1F79927042E02C0959587950A94B9
:10288000E2F780FD0BC028B181E090E002C0880F24
:10289000991F4A95E2F7282B28B980C028B181E01A
:1028A00090E002C0880F991F4A95E2F78095822335
:1028B00088B974C089B1A901B3E056954795BA9516
:1028C000E1F79927042E02C0959587950A94E2F7BF
:1028D00080FD0BC02BB181E090E002C0880F991FF2
:1028E0004A95E2F7282B2BB959C02BB181E090E033
:1028F00002C0880F991F4A95E2F7809582238BB911
:102900004DC08CB1A901A3E056954795AA95E1F772
:102910009927042E02C0959587950A94E2F780FDC9
:102920000BC02EB181E090E002C0880F991F4A953C
:10293000E2F7282B2EB932C02EB181E090E002C020
:10294000880F991F4A95E2F7809582238EB926C099
:102950008FB1A901F3E056954795FA95E1F79927CC
:10296000042E02C0959587950A94E2F780FD0BC06E
:1029700021B381E090E002C0880F991F4A95E2F7E9
:10298000282B21BB0BC021B381E090E002C0880F4F
:10299000991F4A95E2F78095822381BB81E090E000
:1029A00008958FEF9FEF08958F3F09F412C1482FCC
:1029B0005527662309F090C0CA0187709070823055
:1029C000910509F43EC0833091053CF4009789F0ED
:1029D0008130910509F0FDC021C08430910509F4D2
:1029E00054C0843091050CF43EC0059709F0F1C045
:1029F0005EC031B1B3E056954795BA95E1F781E0F5
:102A000090E002C0880F991F4A95E2F7282F209581
:102A1000232321B922B1822B82B9D8C024B1A3E0EB
:102A200056954795AA95E1F702C0880F991F4A95D8
:102A3000E2F7982F8095822384B985B1982B95B9B8
:102A4000C5C037B1F3E056954795FA95E1F781E0B7
:102A500090E002C0880F991F4A95E2F7282F209531
:102A6000232327B935C03AB1E3E056954795EA9557
:102A7000E1F781E090E002C0880F991F4A95E2F7E4
:102A8000282F209523232AB923C03DB173E0569502
:102A900047957A95E1F781E090E002C0880F991F91
:102AA0004A95E2F7282F209523232DB911C030B382
:102AB00063E0569547956A95E1F781E090E002C0A2
:102AC000880F991F4A95E2F7282F2095232320BBD2
:102AD00025B1822B85B97AC09A01277030702230D7
:102AE0003105A9F12330310544F42115310589F070
:102AF0002130310509F06DC01CC02430310509F4C6
:102B000046C0243031059CF12530310509F061C003
:102B10004EC021B133E0569547953A95E1F781E0F3
:102B200090E002C0880F991F4A95E2F7282B21B93F
:102B30004DC084B193E0569547959A95E1F702C050
:102B4000220F331F4A95E2F7822B84B93FC027B189
:102B5000B3E056954795BA95E1F781E090E002C061
:102B6000880F991F4A95E2F7282B27B92FC02AB161
:102B7000A3E056954795AA95E1F781E090E002C061
:102B8000880F991F4A95E2F7282B2AB91FC02DB14B
:102B9000F3E056954795FA95E1F781E090E002C0A1
:102BA000880F991F4A95E2F7282B2DB90FC020B343
:102BB000E3E056954795EA95E1F781E090E002C0A1
:102BC000880F991F4A95E2F7282B20BB81E090E0FF
:102BD00008958FEF9FEF0895882319F08FEF9FEFEF
:102BE000089580B1992787FD9095809590958827C5
:102BF000990F881F99270895009711F484E109C05F
:102C00008130910511F48CE104C08230910531F4DA
:102C100084E20E94CB1381E090E00895039719F0BD
:102C20008FEF9FEF08958CE20E94CB1381E090E03C
:102C30000895009711F484E109C08130910511F4E1
:102C40008CE104C08230910531F484E20E9480124C
:102C500081E090E00895039719F08FEF9FEF0895BA
:102C60008CE20E94801281E090E00895009711F4B8
:102C700084E109C08130910511F48CE104C08230F7
:102C8000910531F484E20E94051381E090E00895FB
:102C9000039719F08FEF9FEF08958CE20E940513C0
:102CA00081E090E00895882319F085B78F7E02C0F7
:102CB00085B7806185BF81E090E00895982F80916D
:102CC000C00085FFFCCF8091C0008F7D8093C00045
:102CD0009093C6000895982F8091C80085FFFCCF7F
:102CE0009093CE000895292F33272093C500809319
:102CF000C40086E08093C200E1ECF0E080818B7F2D
:102D00008083A0ECB0E08C9182608C93808188619C
:102D100080830895292F33272093CD008093CC0002
:102D200086E08093CA00E9ECF0E080818B7F8083AD
:102D3000A8ECB0E08C9182608C9380818861808364
:102D400008958091C00087FFFCCF8091C0008F77ED
:102D50008093C0008091C600992708950E948A162A
:102D600064E272E18BE696E10E94382D9093A3060F
:102D70008093A20664E272E18BE696E10E94382D10
:102D80009093A1068093A0060E94001C8093DB050F
:102D90008F3F19F48EE00E94001B1092DC05109208
:102DA000CA058091C90080688093C9000895809108
:102DB000DB058F3F19F48EE00E94001B8091DB053C
:102DC000992787FD90950895CF93DF93EC0107C075
:102DD0006091A2067091A30699270E94862DFE019C
:102DE000219684918823A1F7DF91CF9108951F92B6
:102DF0000F920FB60F9211242F933F934F935F932F
:102E00006F937F938F939F93AF93BF93EF93FF93B2
:102E10008091C9008F778093C9008091C80087FF97
:102E2000FCCF8091C8008F778093C8009091CE002E
:102E30008091CA05E82FFF27E553FA4F90838F5FF3
:102E40008093CA05803111F41092CA058091DB0588
:102E50000E94911D8091C8008F778093C800809157
:102E6000C90080688093C900FF91EF91BF91AF9135
:102E70009F918F917F916F915F914F913F912F9192
:102E80000F900FBE0F901F901895000000000000DB
:102E900000000197D1F70895FC01A7E0B0E00E947F
:102EA0001B30802D808381E090E00895FC018081BB
:102EB000A7E0B0E0082E0E94233081E090E0089562
:102EC000DC010E941B30802D99270895FC01A0E0B1
:102ED000B0E00E941B30402D4383A1E0B0E00E948F
:102EE0001B30802D8283A2E0B0E00E941B30302D89
:102EF0003183A3E0B0E00E941B30902D9083A4E0CA
:102F0000B0E00E941B30202D830F840F890F2817FB
:102F100019F481E090E008958FEF9FEF0895FC0190
:102F2000A5E0B0E00E941B30802D808381E090E01E
:102F30000895FC01A6E0B0E00E941B30802D808344
:102F400081E090E00895AC0120E030E0D9011896CE
:102F50000E941B30802DFA01E20FF31F80832F5F48
:102F60003F4F2031310591F781E090E00895DC0179
:102F7000062E0E9423300895FC018081A6E0B0E077
:102F8000082E0E94233081E090E00895AC0120E0FB
:102F900030E0D9011896FA01E20FF31F8081082E64
:102FA0000E9423302F5F3F4F2031310591F781E0A0
:102FB00090E00895F89408957894089585E690E057
:102FC00008950E9461250895EF92FF920F931F9339
:102FD000CF93DF93EC018B017A018985823021F058
:102FE00080916B06888301C0188280916B068430C3
:102FF00020F060E087E00E94F91A8985823029F08C
:1030000080916B068F5F80936B0680916B0688239F
:1030100019F481E080936B068881992787FD90954C
:10302000FC0145E0EE0FFF1F4A95E1F7E80FF91F9D
:10303000E152FA4F118300838881992787FD90958B
:10304000FC0135E0EE0FFF1F3A95E1F7E80FF91F9D
:10305000E152FA4F888582878881992787FD90956C
:10306000FC0125E0EE0FFF1F2A95E1F7E80FF91F9D
:10307000E152FA4F83E081872881822F992787FDCB
:103080009095FC0105E0EE0FFF1F0A95E1F7E80FB0
:10309000F91FE152FA4F20878881992787FD909583
:1030A000FC0115E0EE0FFF1F1A95E1F7E80FF91F7D
:1030B000E152FA4F15820881112707FD10952B85E3
:1030C0003C854D855E856F85788989899A890E94BE
:1030D0007C23F801B5E0EE0FFF1FBA95E1F7E00F92
:1030E000F11FE152FA4F948F838F0881112707FD5A
:1030F00010952B8D3C8D4D8D5E8D6F8D78A189A1A6
:103100009AA10E947C23F801A5E0EE0FFF1FAA956B
:10311000E1F7E00FF11FE152FA4F968B858B888122
:10312000992787FD9095FC0175E0EE0FFF1F7A95BA
:10313000E1F7E80FF91FE152FA4F85899689238D4F
:10314000348D820F931F908F878B0881112707FD85
:1031500010952B893C894D895E896F89788D898D81
:103160009A8D0E947C23F80165E0EE0FFF1F6A959F
:10317000E1F7E00FF11FE152FA4F968F858F8881BA
:10318000992787FD9095FC0155E0EE0FFF1F5A959A
:10319000E1F7E80FF91FE152FA4F858D968D928F76
:1031A000818F8881992787FD9095FC0145E0EE0F7E
:1031B000FF1F4A95E1F7E80FF91FE152FA4F81E04E
:1031C00090E090A3878F8881992787FD9095FC01D7
:1031D00035E0EE0FFF1F3A95E1F7E80FF91FE152D6
:1031E000FA4FF382E2828881992787FD9095FC014E
:1031F00025E0EE0FFF1F2A95E1F7E80FF91FE152D6
:10320000FA4F81E0848781E090E0DF91CF911F91B8
:103210000F91FF90EF9008958F929F92AF92BF927F
:10322000CF92DF92EF92FF920F931F93CF93DF9392
:1032300067EEA62E65E0B62ECC24DD244501EC2CED
:10324000F501F080FFEFFF1691F0E40100E010E0DF
:10325000E01639F08881F81621F46F2D85E00E9480
:10326000F91A0F5F1F4FA1960430110589F70894D2
:10327000C11CD11C81E290E0A80EB91E94E0C916D1
:10328000D104E9F60E941E1F282F332727FD309511
:10329000F90155E0EE0FFF1F5A95E1F7E20FF31F1A
:1032A000E152FA4F328530937E0621E28202C0015C
:1032B000112481529A4F90937D0680937C069093BF
:1032C0006E0680936D0630936F060E94472B0E9416
:1032D0002D2B0E946B2BFFCF0F931F93CF93DF9368
:1032E000CDB7DEB7A3970FB6F894DEBF0FBECDBF44
:1032F0000E94001C80936C068F3F21F460E08EE0FA
:103300000E94F91A0E949E2A882321F460E086E038
:103310000E94F91A10926F0610927D0610927C0698
:1033200010926E0610926D0610927E0610927B0629
:103330008FEF80936506809367068093660680937F
:10334000680680936A0680936906EFEDF5E083E6F0
:1033500082878FEF8087B19626E0E336F207B9F7D0
:10336000EFE7F6E0CF01059694838383F783E68346
:10337000FC0126E083399207A9F71092810610928A
:10338000800610929706109296061092720610927E
:10339000710644979093DE058093DD056DE375E239
:1033A0008E010F5F1F4FC8010E94EB2A40E850E0DA
:1033B0006AE175E0C8010E944C2B85E580931A05EF
:1033C00019861C8E1D8E1E8E1F8E18A219A21AA27F
:1033D0001BA291E0988782E08A879B87C8010E94A0
:1033E0000722A3960FB6F894DEBF0FBECDBFDF91C4
:1033F000CF911F910F910895F894FFCFE0917C0633
:10340000F0917D0684870895E0917C06F0917D0619
:10341000848599270895DC01FB0180911905882393
:1034200019F480E090E0089580838091A3028C934A
:1034300081E090E008952F923F924F925F926F92B9
:103440007F928F929F92AF92BF92CF92DF92EF9234
:10345000FF921F93CF93DF9380911905882309F47E
:10346000B4C00E94DA170E94DA1767ED262E62E0D8
:10347000362E5AEE452E52E0552E4DEF642E42E088
:10348000742E35E1832E33E0932E2BE2A22E23E01F
:10349000B22E96E4C92E93E0D92E8CE5E82E83E077
:1034A000F82EC0E7D3E08BE993E00E94E416809108
:1034B000A30299279F938F9387E492E09F938F9322
:1034C0000E94B32D87E993E00E94E4160F900F90BD
:1034D0000F900F9080911905843110F0109219050A
:1034E000809119059927AA27BB27FC013197E23162
:1034F000F105B0F5EA59FF4FEE0FFF1F0590F4916B
:10350000E02D0994CE012EC0C7012CC0C6012AC0EF
:10351000C50128C0C40126C0C30124C0C20122C005
:10352000C10120C089EB92E01DC084E992E01AC07D
:1035300088E892E017C08DE692E014C08EE592E034
:1035400011C08DE492E00EC089E392E00BC089E1E6
:1035500092E008C081E092E005C086EE91E002C0F2
:103560008FED91E00E94E4166091A2067091A3068F
:103570008DE090E00E94862D6091A2067091A306D6
:103580008AE090E00E94862D82E090E00E9436164C
:1035900083E090E00E94191610E088EE93E00E940C
:1035A00059271F5F1436C9F783E090E00E94361652
:1035B00082E090E00E94191610E088EE93E00E94ED
:1035C00059271F5F1436C9F76ECF80E090E0DF9176
:1035D000CF911F91FF90EF90DF90CF90BF90AF9071
:1035E0009F908F907F906F905F904F903F902F9023
:1035F0000895809319056093A3020E941B1A0895F1
:1036000080931905E0917C06F0917D06808580937A
:10361000A3020E941B1A0895992787FD9095FC012B
:1036200025E0EE0FFF1F2A95E1F7E80FF91FE152A1
:10363000FA4FA281B3818C91853529F085E58C9371
:103640008FEF9FEF0895808191818050924218F40E
:1036500081E090E0089582E10E94001B8FEF9FEFD0
:1036600008956F927F928F929F92AF92BF92CF9266
:10367000DF92EF92FF920F931F93CF93DF9387EA2E
:1036800093E00E94E416E0917C06F0917D0680852F
:10369000992787FD90959F938F938AE492E09F935B
:1036A0008F930E94B32DE0917C06F0917D060281FC
:1036B00013811F930F9383E592E09F938F930E9452
:1036C000B32DF801808199279F938F9350E6C52EE3
:1036D00052E0D52EDF92CF920E94B32DE0917C066E
:1036E000F0917D06808191819F938F934DE6E42E2A
:1036F00042E0F42EFF92EF920E94B32D80917C065F
:1037000090917D069F938F9307E712E01F930F938D
:103710000E94B32DCFEDD5E0AA24BB248DB79EB770
:1037200044960FB6F8949EBF0FBE8DBF37E8632E48
:1037300032E0732E4601670178010A811B811F93D5
:103740000F93BF92AF927F926F920E94B32DF801B8
:10375000808199279F938F939F928F920E94B32D80
:10376000888199819F938F93DF92CF920E94B32D8E
:10377000DF93CF93FF92EF920E94B32D0894A11C88
:10378000B11CA1968DB79EB742960FB6F8949EBF16
:103790000FBE8DBF94E0A916B10479F6DF91CF91E9
:1037A0001F910F91FF90EF90DF90CF90BF90AF905F
:1037B0009F908F907F906F900895CF93DF93E091CB
:1037C0007C06F0917D06C281D3818881853539F0F0
:1037D0000E94311B81E00E94001B85E58883E091F7
:1037E0007C06F0917D06808191818050924228F084
:1037F0000E94311B82E10E94001BDF91CF9108954E
:1038000040914F03509150036091510370915203C6
:1038100020E030E0DB01CA01022E04C0B695A79576
:10382000979587950A94D2F781709070892BE9F467
:1038300081E090E0A0E0B0E0022E04C0880F991F64
:10384000AA1FBB1F0A94D2F7842B952BA62BB72B4C
:1038500080934F0390935003A0935103B09352036E
:10386000822F992787FD909508952F5F3F4F203233
:10387000310581F68FEF9FEF0895E0917C06F0917E
:103880007D0665857685878590890895EF92FF92FC
:103890000F931F9321E030E040E050E004C0220F7E
:1038A000331F441F551F8A95D2F7E0917C06F09193
:1038B0007D06E584F68407851089DA01C9018E2129
:1038C0009F21A023B1230097A105B10519F48FEF23
:1038D0009FEF1AC02095309540955095E222F32233
:1038E00004231523E586F6860787108B8189928944
:1038F000A389B48982239323A423B523818B928B3C
:10390000A38BB48B81E090E01F910F91FF90EF901B
:103910000895682F772767FD709580914F039091E8
:103920005003A0915103B0915203062E04C0B695E6
:10393000A795979587950A94D2F781709070892BF7
:1039400019F48FEF9FEF0895E0917C06F0917D06CA
:1039500021E030E040E050E004C0220F331F441F5C
:10396000551F6A95D2F785859685A785B089822BE4
:10397000932BA42BB52B85879687A787B08B81E0E7
:1039800090E00895382F80917B06882319F080E01D
:1039900090E00895809165068F3F11F420E007C004
:1039A000809168068F3F11F022E001C021E0822F54
:1039B0009927FC01EE0FFF1FE80FF91FEB59F94F94
:1039C00032833083618381E080937B0683E0289F8C
:1039D000C00111248B59994F089526E0853692072E
:1039E00011F480E007C08856964019F08FEF9FEFE2
:1039F000089581E0992787FD909508950E94ED1C18
:103A00008F3F11F481E002C0823029F40E94FE1938
:103A10008FEF9FEF0895992787FD9095FC01EE0F9A
:103A2000FF1FE80FF91FEB59F94F8FEF8083828357
:103A3000818380917B06815080937B0681E090E0BA
:103A400008950E94ED1C8F3F11F481E002C0823086
:103A500029F40E94FE198FEF9FEF0895992787FDA3
:103A60009095FC01EE0FFF1FE80FF91FEB59F94F7E
:103A70008281992787FD909508951F93CF93DF93B7
:103A80000E94ED1C182F8F3F11F481E003C082309B
:103A900031F482E00E94FE198FEF9FEF3EC099271C
:103AA00087FD9095EC01CC0FDD1FC80FD91FCB59B6
:103AB000D94F9A818881981774F50E94DA178A8104
:103AC0008F5F8A83E0917C06F0917D061482E6EE9A
:103AD000F5E0212F332727FD3095432F532F808189
:103AE000823091F482859385A485B58582179307EA
:103AF000A407B50749F483E08283178616861082EF
:103B00001286138614861586B19686E0EA36F80783
:103B100031F70E94DC1781E090E0DF91CF911F9197
:103B20000895DF92EF92FF920F931F93E1E0EE2E44
:103B3000F12C012D112D04C0EE0CFF1C001F111FD4
:103B40008A95D2F780914F0390915003A091510331
:103B5000B09152038E219F21A023B1230097A1058C
:103B6000B10511F481E043C00E94DA17E6EEF5E0FA
:103B7000DD2480818130B9F482859385A485B58563
:103B80008E219F21A023B1230097A105B10559F0F3
:103B900083E08283178616861082E286F386048786
:103BA0001587DD24D39480818230A1F482859385AA
:103BB000A485B5858E159F05A007B10759F483E04C
:103BC00082831786168610821286138614861586BF
:103BD000DD24D394B19686E0EA36F80751F60E94C8
:103BE000DC17DD2019F081E090E005C082E00E9442
:103BF000FE198FEF9FEF1F910F91FF90EF90DF90D5
:103C00000895EF92FF920F931F93CF93DF93C82FE6
:103C1000DD27C7FDD095F1E0EF2EF12C012D112D00
:103C20000C2E04C0EE0CFF1C001F111F0A94D2F7CB
:103C300080914F0390915003A0915103B091520392
:103C40008E219F21A023B1230097A105B10519F46E
:103C50008FEF9FEF5DC00E94DA17EFEDF5E0A8014E
:103C60009701209530954095509580858F3F41F183
:103C700085859685A785B0898E159F05A007B10714
:103C800039F4118A128A138A148A178283E0818791
:103C900085859685A785B08982239323A423B523A0
:103CA00085879687A787B08B81899289A389B489F4
:103CB00082239323A423B523818B928BA38BB48B74
:103CC000B19686E0E336F80781F62EEF3FEF4FEF2F
:103CD0005FEF04C0220F331F441F551FCA95D2F750
:103CE00080914F0390915003A0915103B0915203E2
:103CF00082239323A423B52380934F0390935003EF
:103D0000A0935103B09352030E94DC1781E090E02E
:103D1000DF91CF911F910F91FF90EF9008951F9326
:103D2000CF93DF930E94ED1C182F8F3F11F481E099
:103D300003C0823031F482E00E94FE198FEF9FEFC2
:103D40003EC00E94DA17812F992787FD9095EC01DC
:103D5000CC0FDD1FC80FD91FCB59D94F8A818823BB
:103D6000D9F4E0917C06F0917D068781826087839B
:103D7000E0917C06F0917D06812F992787FD909533
:103D8000A92FB92F818B928BA38BB48B0E94DC1748
:103D900080E090E00E9434218A8181508A83E09102
:103DA0007C06F0917D0689818387E0917C06F09105
:103DB0007D0681E084830E94DC1781E090E0DF9142
:103DC000CF911F9108959B01AC01E0917C06F09189
:103DD0007D0685859685A785B08982239323A423B4
:103DE000B5230097A105B10529F460E070E080E0FB
:103DF00090E00895218B328B438B548B81E0878335
:103E000000906C0604C056954795379527950A94FF
:103E1000D2F7C90181709070892B19F00E94CF20D0
:103E200004C080E090E00E943421E0917C06F09193
:103E30007D0661897289838994890895E09171066C
:103E4000F0917206808199270895E0917106F091B2
:103E5000720603C00380F481E02D3097D9F70895EE
:103E6000CF93DF93482FC091DD05D091DE052097D9
:103E700009F47AC0A0917106B09172061097B9F159
:103E8000992787FD90959C0165E0220F331F6A9565
:103E9000E1F7280F391F21523A4F8C919927BC0125
:103EA00055E0660F771F5A95E1F7680F791F615249
:103EB0007A4FFB018481882329F09385F90182855B
:103EC0009817A8F0F9018481882331F0FB019285CD
:103ED000F9018385981758F0FB019285F9018285D5
:103EE000981728F0FD01A381B4811097B1F648839B
:103EF000E091DD05F091DE05238134813093DE050C
:103F00002093DD058091710690917206A817B9077C
:103F1000A1F4109731F0BC83AB831A821982FD01A2
:103F200005C01C821B821A821982F901D283C183C7
:103F3000D0937206C093710617C0FD0181819281F2
:103F4000A217B30751F09A838983BC83AB83818125
:103F50009281FC01D483C38304C01C821B829A8398
:103F60008983FD01D283C183DF91CF910895CF93DF
:103F7000DF93A0917106B0917206109709F446C0C4
:103F8000482F552747FD50958C9199278417950701
:103F900069F4ED01EB81FC81F0937206E093710608
:103FA0001282118216C0D901232B81F18C9199279D
:103FB000FD012381348184179507A9F7C181D2813E
:103FC0003C832B8383819481009719F0FC01D28379
:103FD000C183E091DD05F091DE05309741F4B093A7
:103FE000DE05A093DD05ED011C821B8209C0ED01F9
:103FF000FC83EB83B283A183B093DE05A093DD0540
:10400000E091DD05F091DE0512821182DF91CF9102
:104010000895E0917C06F0917D06808599270895AA
:104020000E94E02AE0917C06F0917D06858188233C
:10403000B9F70895FF920F931F93CF93DF93CDB7F6
:10404000DEB728970FB6F894DEBF0FBECDBF298329
:104050003A834B835C836D837E838F8398870E9432
:10406000DD1B0E94DA17E0917C06F0917D0681E06D
:10407000858381E090E090A3878F0E941F28F82E0F
:1040800029813A814B815C816D817E818F81988508
:104090000E947C23E0917C06F0917D060F2D112774
:1040A000800F911F968B858B87EF8F1570F00E9484
:1040B000AB270E5F1F4F99278017910734F08F2D84
:1040C0008E5F8093AD050E94B0270E94DC170E948E
:1040D000102081E090E028960FB6F894DEBF0FBE66
:1040E000CDBFDF91CF911F910F91FF9008958F92D7
:1040F0009F92AF92BF92CF92DF92EF92FF920F9377
:104100001F93CF93DF93CDB7DEB760970FB6F894C8
:10411000DEBF0FBECDBF29873A874B875C876D878F
:104120007E878F87988BCE0101960E94E22489803A
:104130009A80AB80BC80CD80DE80EF80F8840985DA
:104140001A852B853C854D855E856F857889CE01E6
:1041500009960E945D22882319F48FEF9FEF0CC00F
:1041600029853A854B855C856D857E858F85988907
:104170000E941A2081E090E060960FB6F894DEBFAE
:104180000FBECDBFDF91CF911F910F91FF90EF90A8
:10419000DF90CF90BF90AF909F908F9008951F9326
:1041A0000E94DA17E0917C06F0917D0681E085831C
:1041B00086830E941F28182F883F80F40E94AB2717
:1041C000212F33272E5F3F4F99278217930734F013
:1041D000812F8E5F8093AD050E94B0270E94DC176F
:1041E0000E94102081E090E01F9108951F93CF93CB
:1041F000DF93CDB7DEB728970FB6F894DEBF0FBEBA
:10420000CDBF29833A834B835C836D837E838F8309
:1042100098870E94DA170E941F28182F29813A8157
:104220004B815C816D817E818F8198850E947C238A
:104230008330910518F48FEF9FEF0CC0E0917C065E
:10424000F0917D06810F911D968B858B0E94DC1766
:1042500081E090E028960FB6F894DEBF0FBECDBF88
:10426000DF91CF911F9108950F931F938C010E94AE
:10427000DA17E0917C06F0917D0681E08583168B4C
:10428000058B0E941F28082F883F80F40E94AB27CF
:10429000202F33272E5F3F4F99278217930734F043
:1042A000802F8E5F8093AD050E94B0270E94DC179F
:1042B0000E94102081E090E01F910F910895FF92DD
:1042C0000F931F93CF93DF938C010E94DA17E09135
:1042D0007C06F0917D0681E085830E941F28F82EE0
:1042E000E0917C06F0917D06C82FDD270C0F1D1F85
:1042F000168B058B87EF8F1568F00E94AB272296EF
:1043000099278C179D0734F08F2D8E5F8093AD0514
:104310000E94B0270E94DC170E94102081E090E0EC
:10432000DF91CF911F910F91FF9008951F93CF932D
:10433000DF93EC010E94DD1B209711F4C1E0D0E077
:104340000E94DA17E0917C06F0917D0681E085837A
:10435000D0A3C78F0E941F28182F883F80F40E9487
:10436000AB27212F33272E5F3F4F992782179307C3
:1043700034F0812F8E5F8093AD050E94B0270E949C
:10438000DC170E94102081E090E0DF91CF911F9117
:1043900008951F930E94DD1B0E94DA17E0917C06AE
:1043A000F0917D0681E090E090A3878F81E0858386
:1043B0000E941F28182F883F80F40E94AB27212FCE
:1043C00033272E5F3F4F99278217930734F0812FB1
:1043D0008E5F8093AD050E94B0270E94DC170E947B
:1043E000102081E090E01F910895E0917C06F0910B
:1043F0007D0680850E94B71FE0917C06F0917D06C6
:1044000084E081870E94C92181E090E00895EF92C5
:10441000FF920F931F93CF93DF93EC014B815C814D
:1044200069817A818D819E810E94EF2ABC018F81F2
:10443000882369F04B815C81EE24FF2400E010E0CA
:1044400020E030E0CE010E94E4171F8216C0888170
:10445000992787FD9095FC01A5E0EE0FFF1FAA9517
:10446000E1F7E80FF91FE152FA4F8185833019F027
:104470008FEF9FEF1BC0718360838881992787FD31
:104480009095FC0175E0EE0FFF1F7A95E1F7E80FBC
:10449000F91FE152FA4F85899689892B29F482E028
:1044A000818788810E94301F81E090E0DF91CF9169
:1044B0001F910F91FF90EF9008958F929F92AF926E
:1044C000BF92CF92DF92EF92FF920F931F93CF9301
:1044D000DF93CDB7DEB760970FB6F894DEBF0FBE9F
:1044E000CDBFFC0109831A832B833C834D835E83FC
:1044F0006F83788789869A86AB86BC86CD86DE8672
:10450000EF86F88A2D813E814F81588589819A8175
:10451000AB81BC81AD84BE84CF84D888E984FA8421
:104520000B851C858E159F05A007B10708F43FC0B9
:10453000E816F9060A071B0791F42A153B054C05F6
:104540005D05A8F12A193B094C095D0924833583CF
:104550004683578310821182128213821CC02A154F
:104560003B054C055D05D0F40197A109B1098E19F1
:104570009F09A00BB10B80839183A283B38320504A
:1045800036434546544C2A193B094C095D0924839E
:1045900035834683578381E090E00BC08E199F09D5
:1045A000A00BB10B80839183A283B383ECCF80E017
:1045B00090E060960FB6F894DEBF0FBECDBFDF91DE
:1045C000CF911F910F91FF90EF90DF90CF90BF9010
:1045D000AF909F908F900895FC0113C080509A4C2B
:1045E000AA49BB4384839583A683B7838081918145
:1045F000A281B3810196A11DB11D80839183A28305
:10460000B38384819581A681B78180302AEC92079B
:104610002AE9A2072BE3B20708F708958F929F9229
:10462000AF92BF92CF92DF92EF92FF920F931F93C0
:10463000CF93DF93CDB7DEB760970FB6F894DEBFA8
:104640000FBECDBFFC0109831A832B833C834D83AE
:104650005E836F83788789869A86AB86BC86CD8693
:10466000DE86EF86F88AAD80BE80CF80D884ED8468
:10467000FE840F85188989859A85AB85BC8529813B
:104680003A814B815C81820F931FA41FB51F8083E9
:104690009183A283B383EA0CFB1C0C1D1D1DE482D5
:1046A000F58206831783CF010E94EC2281E090E01F
:1046B00060960FB6F894DEBF0FBECDBFDF91CF91ED
:1046C0001F910F91FF90EF90DF90CF90BF90AF9030
:1046D0009F908F90089560937306709374068093F3
:1046E000750690937606209377063093780640936C
:1046F000790650937A0608958F929F92AF92BF9257
:10470000CF92DF92EF92FF920F931F93CF93DF939D
:10471000CDB7DEB728970FB6F894DEBF0FBECDBF7A
:1047200029833A834B835C836D837E838F83988751
:104730008D809E80AF80B884E980FA800B811C81D7
:10474000E114F1040105110501F180E09AECAAE9F8
:10475000BBE3880E991EAA1EBB1EC501B40123EB44
:1047600036EE4EE050E00E94C22F69010894E10845
:10477000F108010911098AE0EE0CFF1C001F111F4E
:104780008A95D1F7CE0CDF1C09C0C501B40123EB1B
:1047900036EE4EE050E00E94C22F6901B60102C021
:1047A0006050744094E061307907D0F788279927EA
:1047B00023EB36EE4EE050E00E947C2F675A7C4897
:1047C000884F9F4F681579058A059B0518F4089452
:1047D000C11CD11CC60128960FB6F894DEBF0FBECF
:1047E000CDBFDF91CF911F910F91FF90EF90DF90A0
:1047F000CF90BF90AF909F908F9008952F923F924F
:104800004F925F926F927F928F929F92AF92BF92E0
:10481000CF92DF92EF92FF920F931F93CF93DF938C
:10482000CDB7DEB728970FB6F894DEBF0FBECDBF69
:104830007B018C0173708070907023EB36EE4EE03C
:1048400050E00E947C2F6D837E838F8398879AE04F
:1048500016950795F794E7949A95D1F7E982FA822D
:104860000B831C83988529803A804B805C806D8007
:104870007E808F80222D332D442D552D662D772D52
:10488000882D28960FB6F894DEBF0FBECDBFDF91FE
:10489000CF911F910F91FF90EF90DF90CF90BF903D
:1048A000AF909F908F907F906F905F904F903F90D0
:1048B0002F900895AF92BF92CF92DF92EF92FF9226
:1048C0000F931F93CF93DF93CDB7DEB728970FB623
:1048D000F894DEBF0FBECDBF29833A834B835C8340
:1048E0006D837E838F839887AD80BE80CF80D88490
:1048F000E980FA800B811C81E114F10401051105A6
:1049000009F180E09AECAAE9BBE3A80EB91ECA1E21
:10491000DB1EC601B50123EB36EE4EE050E00E94EF
:10492000C22F0894E108F108010911096AE0EE0CB0
:10493000FF1C001F111F6A95D1F7E20EF31E041F22
:10494000151F0AC0C601B50123EB36EE4EE050E05C
:104950000E94C22F79018A01C801B70104C06050CA
:104960007440804090406130A4E07A07A0E08A075C
:10497000A0E09A07A0F723EB36EE4EE050E00E944D
:104980007C2F675A7C48884F9F4F6A157B058C05A2
:104990009D0528F40894E11CF11C011D111DC8019E
:1049A000B70128960FB6F894DEBF0FBECDBFDF91DA
:1049B000CF911F910F91FF90EF90DF90CF90BF901C
:1049C000AF900895EF92FF920F931F93CF93DF93D1
:1049D000EC018091730690917406A0917506B091D8
:1049E000760688839983AA83BB83E0907706F0904C
:1049F00078060091790610917A06EC82FD820E838A
:104A00001F830E941F289927AA27BB27BC01CD011D
:104A100023EB36EE4EE050E00E947C2FE60EF71EB0
:104A2000081F191FEC82FD820E831F8313C0805064
:104A30009A4CAA49BB438C839D83AE83BF838881F4
:104A40009981AA81BB810196A11DB11D888399839B
:104A5000AA83BB838C819D81AE81BF8180302AEC8B
:104A600092072AE9A2072BE3B20708F7DF91CF915B
:104A70001F910F91FF90EF9008950E94DD1B0E94FF
:104A8000AB278B3030F481E0809370060E94E02ADF
:104A900009C08AE090E00E94592782E08093700666
:104AA0000E94D42A80911A05853519F088E00E9469
:104AB000001B80917E21853501F388E00E94001B58
:104AC000DCCF8F929F92AF92BF92CF92DF92EF9204
:104AD000FF920F931F93CF93DF930E94DA170E94E8
:104AE00067270E946F274C018AEF0E94B0276091D0
:104AF000AD0577278827992723EB36EE4EE050E067
:104B00000E947C2F7B018C01809177069091780622
:104B1000A0917906B0917A06E80EF91E0A1F1B1FB4
:104B2000C801B7010E94C22FA8019701261B370BAD
:104B3000480B590B8091730690917406A0917506ED
:104B4000B09176061BC0E12C66E3F62E65E6062FD3
:104B500064EC162FE20EF31E041F151FC801B701E7
:104B600023EB36EE4EE050E00E94C22FA8019701E1
:104B7000261B370B480B590BD601C5015C016D0193
:104B80000894A11CB11CC11CD11C20306AEC360752
:104B90006AE946076BE35607B0F680937306909375
:104BA0007406A0937506B09376062093770630932B
:104BB00078064093790650937A06E0917C06F0914E
:104BC0007D068581882319F18185843001F18781F3
:104BD000823029F0882341F08681882311F485E012
:104BE00001C083E081870CC083E08187E0917C066F
:104BF000F0917D061782E0917C06F0917D06168289
:104C0000E0917C06F0917D0680850E94B71FE091BF
:104C10007C06F0917D06858D968D892B91F16085BE
:104C2000662379F18185843061F1218D328D809107
:104C3000AD0599272817390750F482E00E94F91A28
:104C4000E0917C06F0917D06128E118E04C0281B27
:104C5000390B328F218FE0917C06F0917D06108513
:104C6000818D928D892B69F4612F83E00E94F91A5E
:104C7000E0917C06F0917D0683E08187812F0E9480
:104C8000B71FCFEDD5E000E61AEECC24DD244C2D85
:104C900088858F3F09F489C01D82882391F1898519
:104CA000843079F12D893E898091AD0599272817A7
:104CB000390728F0281B390B3E8B2D8B02C01E8A2A
:104CC0001D8A2F89388D2817390728F0281B390BA2
:104CD000388F2F8B0EC06B8D7C8D8617970728F42D
:104CE000681B790B788F6F8B04C00E949B2F988F65
:104CF0008F8B8F89988D892B21F48B8D9C8D988F2C
:104D00008F8B8985833009F050C08D899E89892BCE
:104D100009F043C08F818823A1F08E81882389F018
:104D200081E090E0A0E0B0E000906C0604C0880F45
:104D3000991FAA1FBB1F0A94D2F7898B9A8BAB8B42
:104D4000BC8B1F821E821D822F8D38A18D8D9E8D62
:104D50002130310561F49A8F898F82E089878F89AC
:104D6000988D9E8B8D8B842F0E94301F16C09A8F3A
:104D7000898F215030408B8D9C8DAC01249FC001C8
:104D8000259F900D349F900D11249E8B8D8B988FB5
:104D90008F8B81E090E098A38F8F8D899E890097FB
:104DA00021F08017910708F48C010894C11CD11CD4
:104DB000A19654E0C516D10409F069CF0E941E1FC8
:104DC000E82E992787FD9095FC0125E0EE0FFF1F47
:104DD0002A95E1F7E80FF91FE152FA4F4285409317
:104DE0007E0681E26E2D68029001112421523A4F15
:104DF00030936E0620936D06EE2091F0858D968D92
:104E0000892B51F0818D928D8A3F910528F480176E
:104E10009107E0F48C011AC00B3F1105B8F014C0E3
:104E20000B30110598F0C8010A978A3F910530F4BC
:104E30008C01099758F409E010E008C005501140B2
:104E400018F400EF10E002C00AEF10E040936F0684
:104E500030937D0620937C060093AD050E941F28A9
:104E600099278017910740F00E941F28082F1127CB
:104E70000E5F1F4F0093AD05EE2011F010927006EB
:104E8000802F0E94B0276EEE72E0C4010E94A42819
:104E90000E943E2B0E946B2BDF91CF911F910F91AF
:104EA000FF90EF90DF90CF90BF90AF909F908F904A
:104EB000089500000000000000000197D1F7089558
:104EC00010928100089581E080938100089583B558
:104ED000816083BD10928500109284000895CF9365
:104EE000DF93CDB7DEB722970FB6F894DEBF0FBEC3
:104EF000CDBF80918400909185009A8389838981B8
:104F00009A8122960FB6F894DEBF0FBECDBFDF9117
:104F1000CF9108951092B100E0E7F0E080818D7F9D
:104F2000808380818E7F808308958093B20008956E
:104F3000E0E7F0E080818360808383E08093B100CC
:104F4000089583B5826083BD1092B2001092A105CE
:104F50001092AD0508958091B3008F5F9927089551
:104F600081508093B3000895882311F4109271004A
:104F70008FEF9FEF0895882319F08FEF9FEF08952B
:104F8000109295001092940081E090E0089588239B
:104F900019F080E090E00895809194009091950040
:104FA0000895882319F08FEF9FEF089582E0809392
:104FB000710081E090E00895882319F08FEF9FEF52
:104FC0000895CB010197059710F46093AB051092FB
:104FD000900088E080939100852F99278093990015
:104FE0004093980030939D0520939C058091AB05DC
:104FF000813021F48091910081600BC0823021F4D6
:1050000080919100826005C0833031F480919100DD
:1050100083608093910008C0843021F480919100D6
:105020008460F7CF853019F081E090E00895809199
:10503000910085608093910081E090E008958091D7
:10504000B200992708950F920FB60F921F922F92D8
:105050003F924F925F926F927F928F929F92AF9208
:10506000BF92CF92DF92EF92FF920F931F932F93F5
:105070003F934F935F936F937F938F939F93AF93E0
:10508000BF93CF93DF93EF93FF93A0917C06B091F2
:105090007D060DB60D920EB60D921F92A091EB03F8
:1050A000B091EC031E90BEBFADBF08951F920F924A
:1050B0000FB60F9211240F900FBE0F901F901895EE
:1050C0001F920F920FB60F9211242F933F934F937D
:1050D0005F936F937F938F939F93AF93BF93EF9360
:1050E000FF93E0919C05F0919D05309711F0099593
:1050F00004C060E08AE00E94F91AFF91EF91BF912D
:10510000AF919F918F917F916F915F914F913F915F
:105110002F910F900FBE0F901F9018951F920F9216
:105120000FB60F9211242F933F934F935F936F937A
:105130007F938F939F93AF93BF93EF93FF9360E021
:105140008AE00E94F91AFFCFCF93DF93CDB7DEB785
:1051500022970FB6F894DEBF0FBECDBFFC018FEFD4
:10516000E937F80710F0E0E0F0E09F014427552709
:10517000CB01AA27BB27280F391F4A1F5B1F2130ED
:1051800080E0380781E0480780E0580778F0809198
:105190008400909185009A83898389819A81E81798
:1051A000F907A8F3205030404140504080918400DE
:1051B000909185009A83898389819A8182179307C8
:1051C000A8F322960FB6F894DEBF0FBECDBFDF91D5
:1051D000CF910895EF92FF921F939EEF9093AD05AC
:1051E00080E28093B6009093B30013E017BB82E097
:1051F0008093B00091EBE92EF12CF701108383B579
:10520000826083BD17BB14BD83B5826083BD1092DD
:10521000800081E0809381001092850010928400CC
:1052200083B5826083BD83B5816083BD0E94A12761
:10523000E0E7F0E0808183608083F70110831092C3
:10524000A1051F91FF90EF900895882311F4E89A2B
:1052500033C0813011F4E99A2FC0823011F4EA9AF8
:105260002BC0833021F480916B00816023C0843097
:1052700021F480916B0082601DC0853021F4809103
:105280006B00846017C0863021F480916B008860C9
:1052900011C0873021F480916B0080610BC0883091
:1052A00021F480916B00806205C0893041F48091C7
:1052B0006B00806480936B0081E090E008958A30F9
:1052C00019F08FEF9FEF089580916B0080688093B5
:1052D0006B0081E090E00895882311F4E89831C0D4
:1052E000813011F0823011F4E9982BC0833021F421
:1052F00080916B008E7F23C0843021F480916B00FD
:105300008D7F1DC0853021F480916B008B7F17C08D
:10531000863021F480916B00877F11C0873021F4A3
:1053200080916B008F7E0BC0883021F480916B00E0
:105330008F7D05C0893041F480916B008F7B809315
:105340006B0081E090E008958A3019F08FEF9FEFB5
:10535000089580916B008F7780936B0081E090E0DF
:105360000895882339F550939B0640939A06662347
:1053700021F4809169008C7F45C0613049F48091AF
:1053800069008D7F809369008091690081603AC0D7
:10539000623049F480916900826080936900809155
:1053A00069008E7F2FC0633009F069C08091690069
:1053B000836028C0813049F5509399064093980640
:1053C000662321F480916900837F1CC0613049F419
:1053D00080916900877F8093690080916900846073
:1053E00011C0623049F4809169008860809369003F
:1053F000809169008B7F06C0633009F040C08091C6
:1054000069008C608093690037C0823031F5509319
:10541000990640939806662321F4809169008F7C59
:10542000F1CF613049F4809169008F7D80936900EC
:10543000809169008061E6CF623049F48091690013
:10544000806280936900809169008F7EDBCF63303A
:10545000B1F4809169008063D5CF8350883018F013
:105460008FEF9FEF089580916800816080936800BE
:1054700050939F0640939E0681E090E0089581E05E
:1054800090E008951F920F920FB60F9211242F9360
:105490003F934F935F936F937F938F939F93AF93BC
:1054A000BF93EF93FF93E0919A06F0919B0630979C
:1054B00011F0099504C060E08AE00E94F91AFF919A
:1054C000EF91BF91AF919F918F917F916F915F917C
:1054D0004F913F912F910F900FBE0F901F901895F5
:1054E0001F920F920FB60F9211242F933F934F9359
:1054F0005F936F937F938F939F93AF93BF93EF933C
:10550000FF93E0919E06F0919F06309711F0099568
:1055100004C060E08AE00E94F91AFF91EF91BF9108
:10552000AF919F918F917F916F915F914F913F913B
:105530002F910F900FBE0F901F9018958091B00083
:1055400090E0811191E081E09827892F99270895B3
:10555000089504B603FC03C081E090E008958FEF46
:105560009FEF0895A89508950E94DA17A89584B72B
:10557000877F84BFE0E6F0E08081886180831082CD
:105580000E94DC1708950E94DA1784B7877F84BFD2
:10559000A895E0E6F0E08081886180838DE08083DB
:1055A0000E94DC170895089583B7817F866083BFCA
:1055B00083B7816083BF889583B78E7F83BF08954B
:1055C00083B7817F83BF83B7816083BF889583B7AB
:1055D0008E7F83BF0895FC01768365830895FB0168
:1055E000DA0125E52C933297292F332720838183F5
:1055F0003297118210823297118210823297118273
:105600001082329711821082329711821082329763
:105610001182108232971182108232971182108289
:105620003297118210823297118210823297118242
:105630001082329711821082329711821082329733
:105640001182108232971182108232971182108259
:10565000329711821082CF01089585E580937E21D3
:10566000EEEFF1E2F093EC03E093EB0321EE37E190
:10567000832F992780832093FF21089521EE37E11E
:10568000832F99278093FE212093FF2108950E9464
:10569000EA280E94DC170895EF92FF920F931F9360
:1056A000CF93DF937C018B01EA014032510518F45E
:1056B00081E10E94001BC80101978C0F9D1FF7011B
:1056C0009283818314830383DF91CF911F910F9184
:1056D000FF90EF900895A0916D06B0916E06CD9168
:1056E000CDBFDD91DEBFFF91EF91DF91CF91BF91F3
:1056F000AF919F918F917F916F915F914F913F916A
:105700002F911F910F91FF90EF90DF90CF90BF905E
:10571000AF909F908F907F906F905F904F903F9051
:105720002F901F900F900FBE0F901895ABE0B0E038
:10573000ECE9FBE20C94E42F4C016B017A01FC01D3
:1057400017821682838181FD08C08FEF9FEF1AC1F7
:1057500022E030E0E20EF31E0CC09DEB292E93E018
:10576000392E3E010894611C711C86EB482E83E0A3
:10577000582EF4010381F60103FD859103FF819109
:105780006F01882309F4FBC0853259F403FD65914C
:1057900003FF61916F01653219F0162FBB241CC005
:1057A00085E2B40199272AC0112359F1612F772787
:1057B000C1010E942D2D892B49F4133219F4F0E117
:1057C000BF2A04C01C3661F420E8B22AF60103FDAA
:1057D000159103FF11916F01B7FEE6CF112389F0F8
:1057E000612F7727C2010E942D2D892B51F024E0D3
:1057F00030E0E20EF31EB4018FE390E00E94862DAC
:10580000B8CF133629F0133781F01335F9F40BC0F4
:1058100087010E5F1F4FB401F701808191810E94C3
:10582000862D7801A6CFF1E0BF2AF7010081118112
:1058300004C0B40199270E94862DF801B0FC85911F
:10584000B0FE81918F018823A1F782CF143611F029
:10585000193649F5B7FE0AC0F7016081718182816E
:10586000938124E030E0E20EF31E0DC0F701808149
:1058700091819C01B901882777FD8095982F42E09E
:1058800050E0E40EF51E5FEEB52297FF09C090953B
:105890008095709561957F4F8F4F9F4FE0E4BE2AB2
:1058A0002AE030E03AC01037B1F0113730F4183543
:1058B000C9F01F3609F063C006C0153739F0183734
:1058C00009F05DC00AC028E030E010C0FFEEBF2242
:1058D0002AE030E00BC020E1B22A34E2B32A20E112
:1058E00030E004C044E0B42A20E132E0B7FE0AC050
:1058F000F701608171818281938144E050E0E40E80
:10590000F51E0BC0F70180819181AC01BA01882797
:105910009927E2E0F0E0EE0EFF1EA3010E94FD2DAC
:10592000A82EA6180B2D112706FF05C0B4018DE285
:1059300090E00E94862D04FF15C0FE01EA0DF11DC6
:105940008081803379F0B40180E390E00E94862D5D
:1059500002FF08C000721070B401C801885A9F4F3E
:105960000E94862DAA94F301EA0DF11D8081B401F5
:1059700099270E94862DAA2009F4FBCEF3CFF401CB
:1059800086819781E2E12B960C940030A0E0B0E094
:10599000ECECFCE20C94EC2FEC01688179818A81BB
:1059A0009B81611571058105910549F484E2A82E5A
:1059B00089EDB82E8BE5C82E87E0D82E02C05B019A
:1059C0006C01C601B5012DE133EF41E050E00E94CA
:1059D0002F3027EA31E440E050E00E947C2F7B0129
:1059E0008C01C601B5012DE133EF41E050E00E948A
:1059F0002F30CA01B90124E13BE040E050E00E94B1
:105A00007C2FE61AF70A080B190B17FF08C08FEF57
:105A10009FEFAFEFBFE7E80EF91E0A1F1B1FE882DA
:105A2000F9820A831B83C7019F77EAE0CDB7DEB70F
:105A30000C9408300E94C62C089588E992E00E94D8
:105A4000C62C0895AA27BB278093980290939902A9
:105A5000A0939A02B0939B020895FC01059006164C
:105A600021F00020D9F7C00108953197CF010895A2
:105A7000EF92FF920F931F93CF93DF938C017B01E3
:105A8000892B11F4672BD1F16EE070E081E090E09A
:105A90000E945B2EFC01009789F1DC0180E8838382
:105AA000E114F10471F0F386E28681E8838380914A
:105AB000A0069091A106892B21F4F093A106E09312
:105AC000A00601151105E1F011870087838182602E
:105AD00083838091A2069091A306892B89F4F09389
